:1000000080312728033008007E14803120007F08CB
:10001000F5000B1F22282100911D17282000911D9B
:1000200017287B088A007A080A00803122282100DC
:10003000901D22282000901D222854088A00530871
:100040000A00803175082000FF007E100900803111
:1000500029288F31FB278031EC00EE30840084307A
:100060008500A030860000308700203087315A2775
:100070008031FA01FB01FC01FD01203084000030D9
:1000800085003730873160278031C03084000030F0
:1000900085001930873160277E10200083315E2B68
:1000A0002000DF005803031D80280130D9000030F4
:1000B000DA005F0A5D28D935DA0D890B5B285735E0
:1000C0003D3E860087015908810441315A08810468
:1000D0000130D9000030DA005F08083E890A722832
:1000E000D935DA0D890B7028D909DA0957353D3E23
:1000F000860087015908810541315A0881050800A9
:1001000002305806031DAF280130D9000030DA0054
:100110005F08083E890A8E28D935DA0D890B8C28AC
:1001200057353D3E860087015908810441315A0800
:1001300081040130D9000030DA005F0AA128D935E6
:10014000DA0D890B9F28D909DA0957353D3E86001B
:1001500087015908810541315A088105080003309B
:100160005806031DD9280130D9000030DA005F0A93
:10017000BB28D935DA0D890BB9280130DB000030F6
:10018000DC005F08083E890AC728DB35DC0D890BD7
:10019000C52859085B04DD005A085C04DE005735A9
:1001A0003D3E860087015D08810441315E0881047F
:1001B00008005808031D08000130D9000030DA009B
:1001C0005F08083E890AE628D935DA0D890BE4284C
:1001D000D909DA090130DB000030DC005F0AF228BF
:1001E000DB35DC0D890BF028DB09DC0959085B05E0
:1001F000DD005A085C05DE0057353D3E860087016C
:100200005D08810541315E08810508002100C801B3
:100210002000E901E90A113069020318542902306B
:10022000D7000030D8006908E400E5016408D9006F
:100230006508DA0081316021813120005708090703
:100240003D3E860087010108E6006908C83E860039
:100250008701660881000230D7000030D8006908A5
:10026000E400E5016408D9006508DA008131602105
:1002700081312000570809073D3E86008701403F35
:10028000E600413FE7006708E8006908013EC83E14
:1002900086008701680881000230E4006408E907ED
:1002A00011306902031C0F29C830E4006408E00023
:1002B0001130E1000030E200703084313924080050
:1002C0002000DD01D81F6B29D709D809D70A0319E7
:1002D000D80ADD01DD0ADA1F7629D909DA09D90A37
:1002E0000319DA0A0130DB005B08DD06DE01DF01FD
:1002F000570858040319A529DC01DC0AD81B8A29F0
:100300000130D735D80D890B81290130DB005B081E
:10031000DC077E290130DE35DF0D890B8B2958087B
:100320005A02031D952957085902031C9C29570896
:10033000D9025808DA3B5E140130D836D70C890B45
:100340009D290130DC02031D8A295D080319AD29AE
:10035000DE09DF09DE0A0319DF0A5F08D8005E083C
:10036000D70008007E1CB62982314C2A86317126BE
:1003700081310318C529E12987313C2708008731DD
:100380003427080087312427080020003A08D800C5
:100390005808E0001130203E86008701413F8A0066
:1003A000403F0A008131013A0319C229033A031977
:1003B000BC29013A0319BF29073A0319C229C229E6
:1003C00008002000A0110230203E86008701403F37
:1003D00084008501810A000887317227813101304C
:1003E0002000A3020030A43B23082404031DFA29A3
:1003F0000630FB290330D9000030DA005908080024
:100400002000E501083065020318152A65353D3ED8
:10041000860087010030C03FC13F0130E40064081E
:10042000E50708306502031C062AE601083066026B
:100430000318272A6608C83E86008701810101301B
:10044000E4006408E60708306602031C1A2A21301B
:10045000E40064082100C800C8302000E4006408FB
:10046000E0000130E1000030E200703084313924D6
:10047000823181302000E40064082100C800C830C7
:100480002000E4006408E0000130E1000030E200F8
:100490007030843139240800863197268231031860
:1004A0005B2A772A8731C42708008731C0270800D4
:1004B0008731B827080020003A08F1007108F900D8
:1004C0001130203E86008701413F8A00403F0A00EC
:1004D0008231013A0319582A033A0319522A013A80
:1004E0000319552A073A0319582A582A08002000E8
:1004F000A0110230203E86008701403F8400850124
:10050000810A000887319B27823101302000A30235
:100510000030A43B23082404031D902A0630912AAE
:100520000330F2000030F300720808002000DA0007
:10053000DB01DB0AA018DC2A5A08D9005908A100FF
:100540002010A014A0110E30D9005908A900F430D1
:10055000A7000130A80020158430AB000730AC00A4
:10056000B7018430AD000730AE00B8018430AF0071
:100570000730B000B9018430B1000730B200BA01D1
:100580007E30B3000730B400BB018631DB268231F8
:100590008731E5278231FA302000D7000730D800B4
:1005A00087316C278231A8302000D7000430D80072
:1005B000873166272000DB015B0808007E1CE22AE9
:1005C0008331202B8731D32782312000D7002208A6
:1005D00086008701570881000130D7005708A2071D
:1005E0000130A3020030A43B230824040319FC2A91
:1005F0008731A827053008002015042B87310C27E8
:10060000080087311427080020003708D700570852
:10061000E0000B30203E86008701413F8A00403FCA
:100620000A008331013A0319012B033A0319FE2A08
:10063000013A0319FE2A073A0319012B012B08007E
:100640008731EE278331F0002000220886008701E1
:10065000700881000130F0007008A2070130A30289
:100660000030A43B2308240403193A2B8731CC27FC
:10067000053008002015422B8731AC270800873150
:10068000B027080020003708F0007008F9000B3090
:10069000203E86008701413F8A00403F0A008331A7
:1006A000013A03193F2B033A03193C2B013A031972
:1006B0003C2B073A03193F2B3F2B080087318A2731
:1006C00083318B170B1782310022833103302000D6
:1006D000EA006A08D600792B6C080319742B0130E4
:1006E000EA006A08D607782B0130D602EC01EC0A42
:1006F000D5015608EA006A08D7000330EB006B0802
:10070000D80001308031502083318131062183317E
:1007100085316925833114302000550203186C2B74
:100720000130EA006A08D507792B7E1C992B8331AA
:10073000C22B20002015A62B87312C2708008731DB
:10074000D02703300800873124270800200037080D
:10075000D7005708E0000B30203E86008701413F5C
:100760008A00403F0A008331013A0319A32B033A60
:1007700003199C2B013A03199C2B073A03199F2B51
:10078000A32B080020002015CF2B8731BC270800A1
:100790008731EB27033008008731B8270800200095
:1007A0003708F0007008F9000B30203E8600870102
:1007B000413F8A00403F0A008331013A0319CC2BA4
:1007C000033A0319C52B013A0319C52B073A03193C
:1007D000C82BCC2B08007E1CEF2B8431CB2C2000A7
:1007E000A0110230D7005708AA00FC2B87312C2714
:1007F000080087312427080020003908D70057084F
:10080000E0000F30203E86008701413F8A00403FD4
:100810000A008431023A0319F62B013A0319F62B28
:10082000F92B080022008C018D018E013730210048
:100830008C00F0308D00FF308E00CF3023008E0012
:10084000A0308D0017308C0024008D018C018E01AA
:100850002100951725008C018D018E010E303C0082
:10086000A0000C30A10010303D009E0011309C0013
:1008700008002000E30020006308823196228431C2
:10088000003A03193B2C20006208D8006108D70009
:10089000600886314826843178302000DC0007303B
:1008A000DD00DE018631642684318731A027843162
:1008B0008531F2258431013A031D0800582C2000AF
:1008C000DB00570858040319762C5B352B3E860055
:1008D00087015708C03F5808C13F5908DA005B0834
:1008E000373E860087015A08810008005B352B3EA1
:1008F000860087018430C03F0730C13F5B08373E28
:100900008600870181010800F40070087104031952
:100910009A2C74352B3E860087017008C03F710801
:10092000C13F7208F3007408373E860087017308E0
:100930008100080074352B3E860087018430C03F5B
:100940000730C13F7408373E8600870181010800E7
:100950007E1CAC2C85312D2D8731E527843120007C
:10096000A01DBC2C863171268431031CBC2C0F3099
:100970002000DB005B08A90020002935A03E86008E
:100980008701413F8A00403F0A0084312000DB009C
:100990005B08A90008002000A0110230F0007008D8
:1009A000AA00D82C8731BC2708008731B827080057
:1009B00020003908F0007008F9000F30203E860052
:1009C0008701413F8A00403F0A008431023A0319FF
:1009D000D22C013A0319D22CD52C08000334073449
:1009E0008B340634C5340634B2340134DE34023478
:1009F000EF340634953403343C340734343407344C
:100A00002C340734243407341C34073414340734AA
:100A10000C340734D0340634EB3403342000DD00CA
:100A2000DE01DE0A20182A2D2014DE015D080319DC
:100A30001C2DA901A90A202D0230DC005C08A900A8
:100A40008731DF2785318631E526853103182A2D48
:100A50008631AF2620005E0808008731E8278531FF
:100A60002000A01D3D2D863197268531031C3D2D8C
:100A70000F30F40074082000A90020002935A03EA2
:100A800086008701413F8A00403F0A008531F4001B
:100A900074082000A90008007E1C502D8531832D8C
:100AA0002000600886008701403FD700413FD80002
:100AB0006008023E8600870101088631482685319C
:100AC00000302000DC00DD00DE0186317E260230B1
:100AD00008002000D801D9015908803AD700803099
:100AE000570208300319580203180800200058352F
:100AF0003D3E860087010030C03FC13F0130D8072E
:100B00000030D93D6C2D790886008701403FF00008
:100B1000413FF1007908023E8600870101088631D5
:100B2000562685310030F500F600F7018631A32600
:100B3000023008007E1C9E2D8631082E02302000D7
:100B4000D7000030D8006008863148268531003053
:100B50002000DC00DD00DE0186317E260230080048
:100B60007E1CB42D8631182E01302000D7000030B5
:100B7000D800600886314826853100302000DC002E
:100B8000DD00DE0186317E26023008007E1CCA2D83
:100B90008631282E01302000D7000030D8006008B0
:100BA00086314826853100302000DC00DD00DE0182
:100BB00086317E26043008007E1CE02D8631382EDA
:100BC00002302000D7000030D80060088631482667
:100BD000853100302000DC00DD00DE0186317E261C
:100BE000043008002000D801D80A2018062EA010D2
:100BF000FF30D7005708A1008731E52785318731BD
:100C0000E22720002A08D7005708D8005808080013
:100C10000230F0000030F100790886315626863126
:100C20000030F500F600F7018631A32602300800F7
:100C30000130F0000030F100790886315626863107
:100C40000030F500F600F7018631A32602300800D7
:100C50000130F0000030F1007908863156268631E7
:100C60000030F500F600F7018631A32604300800B5
:100C70000230F0000030F1007908863156268631C6
:100C80000030F500F600F7018631A3260430080095
:100C90002000DA00201D08005A08D9005908A200D7
:100CA0005808A4005708A30020110800F3002000F2
:100CB000201D08007308F2007208A2007108A40049
:100CC0007008A3002011080020005D08D8005C080F
:100CD000D7005E08DF005F08D900023084315F244E
:100CE000080024001608BF3940389600160E890CFB
:100CF000890C01392000D700570C080020005D083E
:100D0000D8005C08D7005E08DF005F08D90000301B
:100D100084315F2408007E1C8F2E8731442F2000F1
:100D2000A0150314210D8731722705300800240017
:100D30001608BF3940389600160E890C890C013907
:100D4000F000700C08007608F1007508F0007708D4
:100D5000F8007808F2000030843184240800200074
:100D6000201C080000308631BA2686318431A82440
:100D70008631AF2E2000901908002000901908003D
:100D8000A0300032890BC12EBD2E7E1CC92E8731AA
:100D90004C2F2000A0152135873172270330080021
:100DA0007E1CD42E8731532F8F31FA27200020103C
:100DB000AA010E3008002400951A0800940128307A
:100DC000950096010330920008002100100C2000CD
:100DD000D700D70C570C0139D800580C08007E1CDE
:100DE000F32E8731902F2000A0118731D6270430B1
:100DF0000800783021009900980122009601210016
:100E00001A1B0800FF2E7E1C072F8731962F20000B
:100E10002010AA010E3008007E1C102F8731AC2F45
:100E20008731A427093008007E1C182F8731B02F86
:100E30008731A4270A3008007E1C202F8731B42F69
:100E40008731A827053008007E1C282F8731B82F4E
:100E50008731D927003008007E1C302F8731BC2F06
:100E60008731DC27013008007E1C382F8731C02FE6
:100E70008731DC27023008007E1C402F8731C42FC9
:100E80008731DC27013008002000A0150314210D54
:100E900087319B27053008002000A01521358731B8
:100EA0009B27033008008F31F92720002010AA016A
:100EB0000E300800FE0012001E00FE0B5B2F0034F7
:100EC000640080010131890B612F00342000580833
:100ED000D4005708D300080020005808FB0057082A
:100EE000FA0008002000D7005708240091000800ED
:100EF0007E1C7C2F80310228033008007E1C822F4C
:100F00008F31FE2F053008007E1C882F8F31FC2F7B
:100F1000013008008431122487318631F926080017
:100F20002000A0118731F127043008002000201094
:100F3000AA010E300800F00070082400910008009B
:100F4000003085310E25080024009616161608007C
:100F500024009612161608008731C82709300800A9
:100F60008731C8270A3008008731CC2705300800B0
:100F70008731F427003008008731F7270130080057
:100F80008731F727023008008731F7270130080042
:100F9000240096161616080024009612161608004D
:100FA0002000901508002400110808002400961560
:100FB00008002400161508002400961408002400D8
:100FC000161408002100901108002000901108005C
:100FD000200090110800200090150800240011083E
:100FE00008002400961508002400161508002400A7
:100FF000961408008731FD27080020009111080091
:0E1FF200080008000134013008000530080026
:020000040001F9
:06000E00FC3FFF3F9F3F95
:00000001FF
