:0400000080312728FC
:100008007E14803120007F08F5000B1F2228210074
:10001800911D17282000911D17287D088A007C084B
:100028000A00803122282100901D22282000901DDE
:1000380022287B088A007A080A0080317508200087
:10004800FF007E10090080312928E93084008430BF
:100058008500A0308600003087002030873138279F
:100068008031FA01FB01FC01FD01203084000030E1
:1000780085002D3087313E278031C0308400003024
:100088008500113087313E277E10200081310229FA
:100098002000D5004E03031D7C280130CF0000301E
:1000A800D000550A5928CF35D00D890B57284D3522
:1000B8003D3E860087014F08810441315008810484
:1000C8000130CF000030D0005508083E890A6E285C
:1000D800CF35D00D890B6C28CF09D0094D353D3E61
:1000E800860087014F0881054131500881050800C5
:1000F80002304E06031DAB280130CF000030D0007F
:100108005508083E890A8A28CF35D00D890B8828DA
:100118004D353D3E860087014F0881044131500826
:1001280081040130CF000030D000550A9D28CF351A
:10013800D00D890B9B28CF09D0094D353D3E86004F
:1001480087014F08810541315008810508000330B7
:100158004E06031DD5280130CF000030D000550AC7
:10016800B728CF35D00D890BB5280130D100003024
:10017800D2005508083E890AC328D135D20D890B0B
:10018800C1284F085104D30050085204D4004D35FB
:100198003D3E86008701530881044131540881049B
:1001A80008004E08031D08000130CF000030D000C1
:1001B8005508083E890AE228CF35D00D890BE0287A
:1001C800CF09D0090130D1000030D200550AEE28FD
:1001D800D135D20D890BEC28D109D2094F08510528
:1001E800D30050085205D4004D353D3E86008701A6
:1001F8005308810541315408810508008731682773
:1002080081318B170B172000E401083064020318B2
:100218001A296408C03E8600870181010130E00088
:100228006008E40708306402031C0D292130E0004F
:1002380060082100C000C0302000E0006008D6003F
:100248000130D7000030D800703084313424813137
:100258002000E501083065020318412965353D3E57
:10026800860087010030C03FC13F0130E0006008D0
:10027800E50708306502031C32298130E000600878
:100288002100C000C0302000E0006008D600013026
:10029800D7000030D80070308431342481312000F8
:1002A800E601E701E201E30120006208E0006008DE
:1002B800CD00660862070339E1006108CE006608D0
:1002C80080314C20813101302000E6070030E73DC5
:1002D800083066066704031D7729E601E701013047
:1002E800E2070030E33D8131842181316230200012
:1002F800E0006530890B7E29E00B7E290032582901
:100308002100C0012000DF01DF0A11305F0203185D
:10031800D2290230CD000030CE005F08DA00DB01C0
:100328005A08CF005B08D0008131DE2181312000DE
:100338004D0809073D3E860087010108DC005F087B
:10034800C03E860087015C0881000230CD00003085
:10035800CE005F08DA00DB015A08CF005B08D00046
:100368008131DE21813120004D0809073D3E86009C
:100378008701403FDC00413FDD005D08DE005F088B
:10038800013EC03E860087015E0881000230DA0027
:100398005A08DF0711305F02031C8D29C030DA00CC
:1003A8005A08D6001130D7000030D8007030843198
:1003B800342408002000D301CE1FE929CD09CE0935
:1003C800CD0A0319CE0AD301D30AD01FF429CF09C5
:1003D800D009CF0A0319D00A0130D1005108D30639
:1003E800D401D5014D084E040319232AD201D20A9B
:1003F800CE1B082A0130CD35CE0D890BFF290130DF
:10040800D1005108D207FC290130D435D50D890B0C
:10041800092A4E085002031D132A4D084F02031CD7
:100428001A2A4D08CF024E08D03B54140130CE365C
:10043800CD0C890B1B2A0130D202031D082A530850
:1004480003192B2AD409D509D40A0319D50A550842
:10045800CE005408CD0008007E1C342A82317E2A42
:100468008631522682310318432A5F2A873113279F
:10047800080087310B2708008631FB26080020007A
:100488003A08CE004E08D6001130203E860087017B
:10049800413F8A00403F0A008231013A0319402A4D
:1004A800033A03193A2A013A03193D2A073A03196C
:1004B800402A402A08002000A0110230203E860071
:1004C8008701403F84008501810A00088731502751
:1004D800823101302000A3020030A43B2308240409
:1004E800031D782A0630792A0330CF000030D00067
:1004F8004F08080086317826823103188D2AA92AE8
:100508008731A227080087319E2708008731962760
:10051800080020003A08F1007108F9001130203E67
:1005280086008701413F8A00403F0A008231013A34
:1005380003198A2A033A0319842A013A0319872AD4
:10054800073A03198A2A8A2A08002000A0110230D3
:10055800203E86008701403F84008501810A00080B
:1005680087317927823101302000A3020030A43B73
:1005780023082404031DC22A0630C32A0330F200CC
:100588000030F300720808002000D000D101D10A21
:10059800A0180E2B5008CF004F08A1002010A0145F
:1005A800A0110E30CF004F08A900F430A700013089
:1005B800A80020156230AB000730AC00B7016230EC
:1005C800AD000730AE00B8016230AF000730B000B0
:1005D800B9016230B1000730B200BA015C30B30033
:1005E8000730B400BB018631BC2682318731C3276E
:1005F8008231D8302000CD000730CE0087314A271D
:100608008231A3302000CD000430CE00873144274A
:100618002000D101510808007E1C142B8331522B75
:100628008731B12783312000CD0022088600870159
:100638004D0881000130CD004D08A2070130A3020A
:100648000030A43B2308240403192E2B8731862766
:10065800053008002015362B8631E3260800863140
:10066800EB26080020003708CD004D08D6000B30D7
:10067800203E86008701413F8A00403F0A008331BF
:10068800013A0319332B033A0319302B013A0319A2
:10069800302B073A0319332B332B08008731CC272B
:1006A8008331F0002000220886008701700881004D
:1006B8000130F0007008A2070130A3020030A43B0B
:1006C8002308240403196C2B8731AA270530080056
:1006D8002015742B87318A27080087318E27080058
:1006E80020003708F0007008F9000B30203E860023
:1006F8008701413F8A00403F0A008331013A0319CC
:10070800712B033A03196E2B013A03196E2B073A22
:100718000319712B712B08007E1C942B8331BD2B80
:1007280020002015A12B8731032708008731AE2729
:10073800033008008631FB26080020003708CD006A
:100748004D08D6000B30203E86008701413F8A00C5
:10075800403F0A008331013A03199E2B033A0319DB
:10076800972B013A0319972B073A03199A2B9E2BBB
:10077800080020002015CA2B87319A2708008731E6
:10078800C92703300800873196270800200037085A
:10079800F0007008F9000B30203E86008701413FC9
:1007A8008A00403F0A008331013A0319C72B033AF4
:1007B8000319C02B013A0319C02B073A0319C32B9D
:1007C800C72B08007E1CEA2B8431C62C2000A01100
:1007D8000230CD004D08AA00F72B87310327080007
:1007E8008631FB26080020003908CD004D08D600C8
:1007F8000F30203E86008701413F8A00403F0A00B3
:100808008431023A0319F12B013A0319F12BF42B25
:10081800080022008C018D018E01373021008C00E8
:10082800F0308D00FF308E00CF3023008E00A030D6
:100838008D0017308C0024008D018C018E01210061
:10084800951725008C018D018E010E303C00A0000B
:100858000C30A10010303D009E0011309C000800B3
:100868002000D900200059088231C8228431003A7A
:100878000319362C20005808CE005708CD0056081A
:1008880086312926843156302000D2000730D30023
:10089800D40186314526843187317E2784318531DC
:1008A800D3258431013A031D0800532C2000D100C0
:1008B8004D084E040319712C51352B3E86008701D3
:1008C8004D08C03F4E08C13F4F08D0005108373E81
:1008D8008600870150088100080051352B3E8600AC
:1008E80087016230C03F0730C13F5108373E86005C
:1008F800870181010800F400700871040319952C20
:1009080074352B3E860087017008C03F7108C13FCF
:100918007208F3007408373E860087017308810067
:10092800080074352B3E860087016230C03F0730CF
:10093800C13F7408373E86008701810108007E1C8C
:10094800A72C8531282D8731C32784312000A01D8D
:10095800B72C863152268431031CB72C0F30200067
:10096800D1005108A90020002935A03E8600870142
:10097800413F8A00403F0A0084312000D1005108DD
:10098800A90008002000A0110230F0007008AA0099
:10099800D32C87319A270800873196270800200032
:1009A8003908F0007008F9000F30203E86008701F2
:1009B800413F8A00403F0A008431023A0319CD2C96
:1009C800013A0319CD2CD02C0800DA3406346C34E3
:1009D8000634A63406343034023410340334D034A8
:1009E800063490340334133407340B340734033497
:1009F8000734FB340634F3340634EB340634E3347A
:100A08000634B1340634E63403342000D300D4016C
:100A1800D40A2018252D2014D40153080319172DA2
:100A2800A901A90A1B2D0230D2005208A90087315A
:100A3800BD2785318631C62685310318252D863197
:100A480090262000540808008731C62785312000E9
:100A5800A01D382D863178268531031C382D0F309E
:100A6800F40074082000A90020002935A03E860063
:100A78008701413F8A00403F0A008531F40074082D
:100A88002000A90008007E1C4B2D8531642D200014
:100A9800560886008701403FCD00413FCE005608EA
:100AA800023E8600870101088631292685310030FB
:100AB8002000D200D300D40186315F26023008001E
:100AC800790886008701403FF000413FF10079082E
:100AD800023E8600870101088631372685310030BD
:100AE800F500F600F70186318426023008007E1CE6
:100AF8007F2D8531E92D02302000CD000030CE0059
:100B0800560886312926853100302000D200D300CE
:100B1800D40186315F26023008007E1C952D853170
:100B2800F92D01302000CD000030CE005608863166
:100B38002926853100302000D200D300D401863127
:100B48005F26023008007E1CAB2D8631092E01304D
:100B58002000CD000030CE00560886312926853188
:100B680000302000D200D300D40186315F26043043
:100B780008007E1CC12D8631192E02302000CD00C0
:100B88000030CE00560886312926853100302000F5
:100B9800D200D300D40186315F260430080020003B
:100BA800CE01CE0A2018E72DA010FF30CD004D0849
:100BB800A1008731C32785318731C02720002A0843
:100BC800CD004D08CE004E0808000230F00000307D
:100BD800F10079088631372685310030F500F600B6
:100BE800F70186318426023008000130F000003019
:100BF800F10079088631372685310030F500F60096
:100C0800F70186318426023008000130F0000030F8
:100C1800F10079088631372686310030F500F60074
:100C2800F70186318426043008000230F0000030D5
:100C3800F10079088631372686310030F500F60054
:100C4800F70186318426043008002000D000201DDA
:100C580008005008CF004F08A2004E08A4004D0815
:100C6800A30020110800F3002000201D08007308CD
:100C7800F2007208A2007108A4007008A3002011F5
:100C8800080020005308CE005208CD005408D500B3
:100C98005508CF00023084315A2408002400160871
:100CA800BF3940389600160E890C890C013920008E
:100CB800CD004D0C080020005308CE005208CD008E
:100CC8005408D5005508CF00003084315A24080054
:100CD8007E1C702E87311B2F2000A0150314210DB8
:100CE800873150270530080024001608BF394038DE
:100CF8009600160E890C890C0139F000700C08005A
:100D08007608F1007508F0007708F8007808F20016
:100D1800003084317F2408002000201C08000030A7
:100D280086319B2686318431A3248631902E20007B
:100D3800901908002000901908000830890BA22E8D
:100D480000009E2E7E1CAA2E87312A2F2000A01577
:100D5800213587315027033008007E1CB52E873196
:100D6800312F8731E42720002010AA010E30080017
:100D78002400951A08009401283095009601033044
:100D8800920008002100100C2000CD00CD0C4D0C65
:100D98000139CE004E0C08007E1CD42E87316E2FF0
:100DA8002000A0118731B427043008007E1CDE2EF5
:100DB8008731742F20002010AA010E3008007E1CF5
:100DC800E72E87318A2F87318227093008007E1C59
:100DD800EF2E87318E2F873182270A3008007E1C3C
:100DE800F72E8731922F87318627053008007E1C21
:100DF800FF2E8731962F8731B727003008007E1CD9
:100E0800072F87319A2F8731BA27013008007E1CB7
:100E18000F2F87319E2F8731BA27023008007E1C9A
:100E2800172F8731A22F8731BA27013008002000F9
:100E3800A0150314210D8731792705300800583093
:100E48002100990098012200960108002000A015B1
:100E5800213587317927033008008731E5272000BD
:100E68002010AA010E300800FE0012001E00FE0B22
:100E7800392F0034640080010131890B3F2F003481
:100E880020004E08FB004D08FA00080020004E081C
:100E9800FD004D08FC0008002000CD004D0824008E
:100EA800910008007E1C5A2F8731DE2F033008007E
:100EB8007E1C602F8731E02F053008007E1C662FCE
:100EC8008731E22F0130080084310D2487318731C2
:100ED800232708002000A0118731CF2704300800FD
:100EE80020002010AA010E300800F000700824002D
:100EF8009100080000308531092508002400961665
:100F08001616080024009612161608008731A62720
:100F1800093008008731A6270A3008008731AA2738
:100F2800053008008731D227003008008731D527DF
:100F3800013008008731D527023008008731D527CE
:100F48000130080024009616161608002400961290
:100F58001616080020009015080024001108080043
:100F6800240096150800240016150800240096147D
:100F78000800240016140800210090110800200021
:100F8800901108002000901108002000901508001A
:100F980024001108080024009615080024001615DE
:100FA80008002400961408008731DB270800200079
:100FB80091110800033008000530080001300800CE
:040FC8000800080015
:020000040001F9
:06000E00FC3FFF3F9F3F95
:00000001FF
