:1000000080312E28033008007E14803120007F08C4
:10001000A0008B190B1C10288D31DC25803129287C
:100020000B1F29282100911D1E282000911D1E282C
:1000300058088A0057080A00803129282100901D9D
:1000400029282000901D292856088A0055080A00F2
:10005000803120002008FF007E1009008031302808
:10006000D73084008D3085006030860000308700F6
:1000700005308E311E268031323084008730850075
:10008000203086000130870020308E311E268031DE
:10009000473084000030850019308E3118268031B9
:1000A000A0308400003085003E308E3118267E104E
:1000B0002000813192292000A9002203031D8B28F2
:1000C0000130A3000030A400290A6828A335A40D3C
:1000D000890B66282135BD3E8600870123088104EF
:1000E0004131240881040130A3000030A400290814
:1000F000083E890A7D28A335A40D890B7B28A30916
:10010000A4092135BD3E86008701230881054131C0
:1001100024088105080002302206031DBA28013098
:10012000A3000030A4002908083E890A9928A335B5
:10013000A40D890B97282135BD3E86008701230831
:1001400081044131240881040130A3000030A4005F
:10015000290AAC28A335A40D890BAA28A309A40950
:100160002135BD3E860087012308810541312408E1
:100170008105080003302206031DE4280130A30096
:100180000030A400290AC628A335A40D890BC42871
:100190000130A5000030A6002908083E890AD228AF
:1001A000A535A60D890BD02823082504A70024080F
:1001B0002604A8002135BD3E86008701270881045A
:1001C00041312808810408002208031D080001307D
:1001D000A3000030A4002908083E890AF128A335AD
:1001E000A40D890BEF28A309A4090130A500003054
:1001F000A600290AFD28A535A60D890BFB28A5090F
:10020000A60923082505A70024082605A8002135EE
:10021000BD3E8600870127088105413128088105F8
:1002200008002000DB0108305B0203182B295B0863
:10023000473E860087010135BF005B08473E8600C8
:1002400087013F0881000130BF003F08DB0708300D
:100250005B02031C172903305F06031D8D2907303D
:10026000BF003F08BB000430873172278131200076
:10027000C0004008DA005A08BF003F08BB00013048
:100280008731722781312000C0004008D900DB018E
:1002900059085B02031856295B08473E8600870110
:1002A00001140130BF003F08DB0748290730BF00B9
:1002B0003F08DB005908BF00C001BF09C009BF0AE1
:1002C0000319C00A5A083F07C10040080318400A32
:1002D000C200C109C209C10A0319C20A4108083E85
:1002E000C3000030423DC4004408803A803C031DF6
:1002F0007B2943085B02031C862920005B08473EDC
:100300008600870101140130DB025A292000DF0139
:100310000130D3070030D43D08000130BF003F0852
:10032000DF0708008D31EE2581318B170B178131E6
:10033000F7218131CF302000A1000E30A2008D3195
:10034000E825813103302000C5004508DE005D0846
:100350000319A7295E08C5004508A1000330C6009F
:100360004608A200013080315B208131873191271E
:1003700081318231552281318F318127813108309D
:1003800020005E020318CA295E08473E86008701E6
:10039000011FCD2983319F238131503020005C0221
:1003A000031CE02964080319DA290130C500450857
:1003B000DE07DE290130DE02E401E40ADC01E42983
:1003C0000130C5004508DC070030500264300319D5
:1003D0004F02031CF2298131112181312000CF010C
:1003E000D001AA290130CF070030D03DAA29200032
:1003F000DB0108305B0203180C2A5B35BD3E86002A
:1004000087010030C03FC13F0130B6003608DB072E
:1004100008305B02031CFD29DB0108305B02031876
:100420001E2A5B08CD3E8600870181010130B6009F
:100430003608DB0708305B02031C112ADB01083099
:100440005B020318302A5B08473E86008701810162
:100450000130B6003608DB0708305B02031C232A94
:100460002130B60036082100CD00CD302000B60086
:100470003608B2000130B3000030B400703086316D
:100480005626813181302000B60036082100CD008B
:10049000CD302000B6003608B2000130B300003085
:1004A000B40070308631562608002100CD012000AE
:1004B000DB01DB0A11305B020318A32A0230A10022
:1004C0000030A2005B08B600B7013608A300370869
:1004D000A4008231AF228231200021080907BD3EED
:1004E000860087010108B8005B08CD3E86008701C1
:1004F000380881000230A1000030A2005B08B6007D
:10050000B7013608A3003708A4008231AF22823138
:10051000200021080907BD3E86008701403FB80042
:10052000413FB9003908BA005B08013ECD3E860064
:1005300087013A0881000230B6003608DB07113027
:100540005B02031C5E2ACD30B6003608B2001130C3
:10055000B3000030B4007030863156260800200009
:10056000A701A21FBA2AA109A209A10A0319A20A76
:10057000A701A70AA41FC52AA309A409A30A03194E
:10058000A40A0130A5002508A706A801A901210891
:1005900022040319F42AA601A60AA21BD92A0130B3
:1005A000A135A20D890BD02A0130A5002508A60788
:1005B000CD2A0130A835A90D890BDA2A2208240298
:1005C000031DE42A21082302031CEB2A2108A302AD
:1005D0002208A43B28140130A236A10C890BEC2A76
:1005E0000130A602031DD92A27080319FC2AA809ED
:1005F000A909A80A0319A90A2908A2002808A10024
:1006000008007E1C052B8331EA2B8F31192783319B
:100610000318142B312B8E313A2608008E314226D6
:1006200008008E315226080021003A082000AB0055
:100630002B08AA001130A03E86008701413F8A00A6
:10064000403F0A008331013A0319112B033A031981
:100650000B2B013A03190E2B073A0319112B112BFF
:1006600008002100A0110230A03E86008701403F13
:1006700084008501810A00088E310626833101300D
:100680002100A3020030A43B23082404031D4A2BAD
:1006900006304B2B03302000AC000030AD002C089E
:1006A00008002000A400A501A50A2100A0189C2B89
:1006B00020002408A30023082100A1002010A0147A
:1006C000A0110E302000A30023082100A900F4305F
:1006D000A7000130A8002015FA30AB000D30AC00A7
:1006E000B701FA30AD000D30AE00B801FA30AF00FE
:1006F0000D30B000B901FA30B1000D30B200BA01CE
:100700000030B3000E30B400BB018E319926833126
:100710008D318525833170302000A1000D30A2007D
:100720008E310C2683317C302000A1000630A200DF
:100730008E3112262000A501200025080800200087
:10074000DB0108305B020318B52B5B35BD3E86002C
:1007500087010030C03FFF30C13F0130BB003B0884
:10076000DB0708305B02031CA52B82315522833145
:1007700009302000BC001E30BB00E430890BBE2BCA
:10078000BB0BBE2BBC0BBE2B00002000DB010830D6
:100790005B020318D82B5B08473E86008701810166
:1007A0000130BB003B08DB0708305B02031CCB2B8E
:1007B0008231552283312000DD015D080319DD2BD4
:1007C0000330BB003B08DE00DC01CF01D001D301C8
:1007D000D40108008E31E72683310318F92B152C3C
:1007E0008D31A52508008D31A92508008D31B12551
:1007F000080021003A08FA007A08F9001130A03EFA
:1008000086008701413F8A00403F0A008431013A57
:100810000319F62B033A0319F02B013A0319F32BB2
:10082000073A0319F62BF62B08002100A01102301D
:10083000A03E86008701403F84008501810A0008B0
:100840008D31CD25833101302100A3020030A43B3E
:1008500023082404031D2E2C06302F2C0330FB000C
:100860000030FC007B0808002000BA01B71F3F2CB5
:10087000B609B709B60A0319B70ABA01BA0AB51F09
:10088000462CB409B509B40A0319B50A340835046D
:1008900003196D2CB901B90AB51B582C0130B435B8
:1008A000B50D890B4F2C0130B8003808B9074C2C16
:1008B00035083702031D5E2C34083602031C642CF5
:1008C0003408B6023508B73B0130B536B40C890B95
:1008D000652C0130B902031D582C3A080319752CF8
:1008E000B609B709B60A0319B70A3708B5003608BA
:1008F000B40008007E1C7E2C8431C02C8D319725DD
:1009000084312000AB0021002208860087012000EE
:100910002B0881000130AB002B082100A207013019
:10092000A3020030A43B2308240403199B2C8D311F
:10093000C125053008002015A32C8E316A26080039
:100940008E3162260800210037082000AB002B08FA
:10095000AA000B30A03E86008701413F8A00403F3D
:100960000A008431013A0319A02C033A03199D2C83
:10097000013A03199D2C073A0319A02CA02C08005A
:100980008D317C258431FA00210022088600870100
:100990007A0881000130FA007A08A2070130A30228
:1009A0000030A43B230824040319DA2C8D319D2543
:1009B000053008002015E22C8D31BD2508008D3151
:1009C000B925080021003708FA007A08F9000B3031
:1009D000A03E86008701413F8A00403F0A008431E3
:1009E000013A0319DF2C033A0319DC2C013A0319ED
:1009F000DC2C073A0319DF2CDF2C080020006308E9
:100A0000A4006208A3006108A2006008A1004130B0
:100A1000A800C630A7004E30A6006D30A500853175
:100A2000A525843120002408E3002308E2002208E1
:100A3000E1002108E0003930E0073030E13D0030CE
:100A4000E23D0030E33D6008AF006108B00062089D
:100A5000B1006308B2001030B300B237B10CB00C73
:100A6000AF0CB30B2D2DFF302F05AD007F303005BF
:100A7000AE0008002000A40024080F39A1000430B3
:100A8000A135890B402D2408A2000430A236890B21
:100A9000462D22080F392104A3002308A4002408AE
:100AA0003339A1000230A135890B532D2408A2004F
:100AB0000230A236890B592D220833392104A300B4
:100AC0002308A40024085539A1000130A135890B61
:100AD000662D243655392104A2002208A4002408DA
:100AE000080022008C018D018E01373021008C001E
:100AF000F0308D00FF308E00CF3023008E00A0300C
:100B00008D0017308C0024008D018C0110308E0078
:100B10002100951325008C018D018E0127001912EB
:100B20001816171667302000A1000D30A2008D3175
:100B3000E8258B150E303C00A0000C30A1001030D1
:100B40003D009E0011309C00080000302000AC00E9
:100B50000030AB000030AA000030A900211CB82DE5
:100B60002508A9072608AA3D2708AB3D2808AC3D63
:100B70000130A535A60DA70DA80D890BB92D0130A3
:100B8000A436A30CA20CA10C890BC02D24082304AD
:100B900022042104031DAE2D2C08A4002B08A30061
:100BA0002A08A2002908A10008007E1CD92D863140
:100BB0002D2E21002015E62D8E314A2608008D317C
:100BC0009A25033008008E3152260800210037088C
:100BD0002000AB002B08AA000B30A03E8600870146
:100BE000413F8A00403F0A008531013A0319E32D55
:100BF000033A0319DC2D013A0319DC2D073A0319D6
:100C0000DF2DE32D08007E1C072E87310F2F2100DA
:100C1000A01102302000AB002B082100AA00162EE4
:100C20008E314A2608008E315226080021003908EC
:100C30002000AB002B08AA000F30A03E86008701E1
:100C4000413F8A00403F0A008631023A0319102EC4
:100C5000013A0319102E132E0800210020153A2EF8
:100C60008D31AD2508008D317F25033008008D3191
:100C7000B125080021003708FA007A08F9000B3086
:100C8000A03E86008701413F8A00403F0A0086312E
:100C9000013A0319372E033A0319302E013A03198A
:100CA000302E073A0319332E372E08002000B500E6
:100CB00020003508833151238631003A0319582E1C
:100CC00020003408A2003308A10032088F31932796
:100CD0008631F4302000A6000D30A700A8018F3126
:100CE000262786318D31C92586318731CD2786313A
:100CF000013A031D0800752E7E1C802E8731522F6D
:100D00008D31852586312100A01D912E8F31192727
:100D10008631031C912E0F302000AE002E082100DA
:100D2000A90021002935203E860001308700413F7F
:100D30008A00403F0A0086312000AE002E082100C4
:100D4000A90008002000A500210822040319B92EDB
:100D50002535AB3E860087012108C03F2208C13FF0
:100D60002308A4002508B73E8600870124088100D7
:100D700008002535AB3E86008701FA30C03F0D30B4
:100D8000C13F2508B73E8600870181010800200089
:100D9000B000B101B10A21002018E82E2014200073
:100DA000B10130080319D82E2100A901A90ADE2EAD
:100DB00002302000AF002F082100A9008D318B25C3
:100DC00086318E318F2686310318E82E8E31C42667
:100DD000200031080800F400700871040319012F85
:100DE0007435AB3E860087017008C03F7108C13F73
:100DF0007208F3007408B73E86008701730881000B
:100E000008007435AB3E86008701FA30C03F0D30D4
:100E1000C13F7408B73E86008701810108002100A8
:100E2000A0110230FA007A08AA001C2F8D31AD25DE
:100E300008008D31B125080021003908FA007A0830
:100E4000F9000F30A03E86008701413F8A00403FF5
:100E50000A008731023A0319162F013A0319162F97
:100E6000192F080072340E34F3340E34AE340E34BD
:100E7000013403347A34043485340E34D5340534E3
:100E80003A340E3442340E344A340E3452340E3472
:100E90005A340E3462340E346A340E34A3340E34B1
:100EA000033406348D31822587312100A01D622F45
:100EB0008E31E7268731031C622F0F30FD007D083D
:100EC0002100A90021002935203E8600013087003D
:100ED000413F8A00403F0A008731FD007D08210024
:100EE000A90008002000BE003E08BC00BD01BC09EE
:100EF000BD09BC0A0319BD0A3B083C07B4003D0804
:100F000003183D0AB5008431FE24873120002E08E5
:100F1000B7002D08B60084313424200034083E0781
:100F200008002000DB0108305B02031808005B08A2
:100F3000473E86008701010885313A258731200028
:100F4000A500A6015B35BD3E86008701250881040A
:100F50004131260881040130A5002508DB07932FC5
:100F60007E1CB42F8731E82F20002A0886008701D5
:100F7000403FA100413FA2002A08023E86008701AF
:100F800001088F319327873100302000A600A70089
:100F9000A8018F310C27023008002000A201A20A0C
:100FA00021002018E52FA010FF302000A10021080B
:100FB0002100A1008D31852587318D3188252100C3
:100FC0002A082000A1002108A20020002208080011
:100FD000790886008701403FF000413FF100790821
:100FE000023E8600870101088F31332787310030A8
:100FF000F500F600F7018E31DB260230080008000C
:101ACE0008000800013008000530080020009111C0
:101ADE0008008D316D25080024009614080024009E
:101AEE001615080024009615080024001108080099
:101AFE002000901508002000901108002000901181
:101B0E00080021009011080024001614080024007B
:101B1E0096140800240016150800240096150800D7
:101B2E0024001108080020009015080024009612C9
:101B3E001616080024009616161608008D31732509
:101B4E00013008008D317325023008008D31732568
:101B5E00013008008D317625003008008D319D252D
:101B6E00053008008D31A1250A3008008D31A125E0
:101B7E000930080024009612161608002400961646
:101B8E001616080000308631C7260800F0007008CF
:101B9E0024009100080021002010AA010E30080038
:101BAE00013400340034003401342700191E0800BB
:101BBE008E31FF2608002100A0118D3179250430C9
:101BCE00080020002208E6002108E5000800853103
:101BDE0071258D318E317B2608007E1CF82D8031CB
:101BEE000228033008007E1CFE2D8D31692D013038
:101BFE0008007E1C042E8D316B2D05300800200050
:101C0E00A100210824009100080020002208D8001D
:101C1E002108D700080020002208D6002108D50090
:101C2E000800640080010131890B192E0034FE007A
:101C3E0012001E00FE0B1F2E00348D316825210070
:101C4E002010AA010E3008002100A01521358D317B
:101C5E00CD25033008002100A0150314210D8D3170
:101C6E00CD25053008007E1C3E2E8D31A52D8D31E3
:101C7E008E25013008007E1C462E8D31A92D8D310A
:101C8E008E25023008007E1C4E2E8D31AD2D8D31ED
:101C9E008E25013008007E1C562E8D31B12D8D31D2
:101CAE009125003008007E1C5E2E8D31B52D8D31B4
:101CBE00C125053008007E1C662E8D31B92D8D3163
:101CCE00C5250A3008007E1C6E2E8D31BD2D8D313E
:101CDE00C525093008007E1C762E8D31D22D2100AF
:101CEE002010AA010E3008007830210099009801CA
:101CFE002200960121001A1B0800812E7E1C892EBF
:101D0E008D31E22D2100A0118D3194250430080073
:101D1E002100100C2000A100A10C210C0139A20001
:101D2E00220C08002400951A080094012830950012
:101D3E0096014F30920008007E1CA72E8E31242E65
:101D4E008731FF2721002010AA010E3008007E1CCB
:101D5E00B22E8E312B2E2100A01521358E31062666
:101D6E000330080020009019080020009019080088
:101D7E00A0300032890BC02EBC2E2100201C080082
:101D8E0000308E31B9268E3186317C268E31C42EAE
:101D9E002000DD01DD0AE4015C0A03190800FF30B2
:101DAE00F0007008DC0008007608F1007508F000FD
:101DBE007708F8007808F20000308631EB2608002C
:101DCE0024001608BF3940389600160E890C890C6F
:101DDE000139F000700C08007E1CF72E8E31322E69
:101DEE002100A0150314210D8E31062605300800A2
:101DFE002000650866040319092F66088A00650825
:101E0E000A008F3127001912080020002708A200AF
:101E1E002608A1002808A9002908A3000030863151
:101E2E00A226080024001608BF3940389600160E68
:101E3E00890C890C01392000A100210C080020001A
:101E4E002708A2002608A1002808A9002908A30037
:101E5E0002308631A2260800F3002100201D080062
:101E6E007308F2007208A2007108A4007008A300A3
:101E7E00201108000230F0000030F10079088F3197
:101E8E0033278F310030F500F600F7018E31DB2657
:101E9E00043008000130F0000030F10079088F3175
:101EAE0033278F310030F500F600F7018E31DB2637
:101EBE00043008000130F0000030F10079088F3155
:101ECE0033278F310030F500F600F7018E31DB2617
:101EDE00023008000230F0000030F10079088F3136
:101EEE0033278F310030F500F600F7018E31DB26F7
:101EFE00023008002000DB0108305B0203180800E6
:101F0E005B35BD3E860087010030C03FC13F0130CA
:101F1E00A1002108DB07832F2000A4002100201D33
:101F2E00080020002408A30023082100A20020009E
:101F3E0022082100A400200021082100A300201166
:101F4E0008007E1CAC2F8F31412F02302000A100E3
:101F5E000030A2002A088F3193278F3100302000E5
:101F6E00A600A700A8018F310C27043008007E1CA4
:101F7E00C22F8F31512F01302000A1000030A2005E
:101F8E002A088F3193278F3100302000A600A7003A
:101F9E00A8018F310C27043008007E1CD82F8F31FA
:101FAE00612F01302000A1000030A2002A088F31DD
:101FBE0093278F3100302000A600A700A8018F3193
:101FCE000C27023008007E1CEE2F8F31712F02304D
:101FDE002000A1000030A2002A088F3193278F31F4
:101FEE0000302000A600A700A8018F310C27023078
:021FFE000800D9
:020000040001F9
:06000E00FC3FFF3F9F3F95
:00000001FF
