:1000000080312E28033008007E14803120007F08C4
:10001000A0008B190B1C10288D31D3258031292885
:100020000B1F29282100911D1E282000911D1E282C
:1000300058088A0057080A00803129282100901D9D
:1000400029282000901D292856088A0055080A00F2
:10005000803120002008FF007E1009008031302808
:10006000CE3084008D3085006030860000308700FF
:1000700005308E31152680313C3084008730850074
:10008000203086000130870020308E3115268031E7
:10009000473084000030850019308E310F268031C2
:1000A000A0308400003085003E308E310F267E1057
:1000B0002000813192292000A9002203031D8B28F2
:1000C0000130A3000030A400290A6828A335A40D3C
:1000D000890B66282135BD3E8600870123088104EF
:1000E0004131240881040130A3000030A400290814
:1000F000083E890A7D28A335A40D890B7B28A30916
:10010000A4092135BD3E86008701230881054131C0
:1001100024088105080002302206031DBA28013098
:10012000A3000030A4002908083E890A9928A335B5
:10013000A40D890B97282135BD3E86008701230831
:1001400081044131240881040130A3000030A4005F
:10015000290AAC28A335A40D890BAA28A309A40950
:100160002135BD3E860087012308810541312408E1
:100170008105080003302206031DE4280130A30096
:100180000030A400290AC628A335A40D890BC42871
:100190000130A5000030A6002908083E890AD228AF
:1001A000A535A60D890BD02823082504A70024080F
:1001B0002604A8002135BD3E86008701270881045A
:1001C00041312808810408002208031D080001307D
:1001D000A3000030A4002908083E890AF128A335AD
:1001E000A40D890BEF28A309A4090130A500003054
:1001F000A600290AFD28A535A60D890BFB28A5090F
:10020000A60923082505A70024082605A8002135EE
:10021000BD3E8600870127088105413128088105F8
:1002200008002000DB0108305B0203182B295B0863
:10023000473E860087010135BF005B08473E8600C8
:1002400087013F0881000130BF003F08DB0708300D
:100250005B02031C172903305F06031D8D2907303D
:10026000BF003F08BB00043087317C27813120006C
:10027000C0004008DA005A08BF003F08BB00013048
:1002800087317C2781312000C0004008D900DB0184
:1002900059085B02031856295B08473E8600870110
:1002A00001140130BF003F08DB0748290730BF00B9
:1002B0003F08DB005908BF00C001BF09C009BF0AE1
:1002C0000319C00A5A083F07C10040080318400A32
:1002D000C200C109C209C10A0319C20A4108083E85
:1002E000C3000030423DC4004408803A803C031DF6
:1002F0007B2943085B02031C862920005B08473EDC
:100300008600870101140130DB025A292000DF0139
:100310000130D3070030D43D08000130BF003F0852
:10032000DF0708008D31E52581318B170B178131EF
:10033000FB218131C6302000A1000E30A2008D319A
:10034000DF25813103302000C5004508DE00823101
:100350005922813120005D080319AA295E08C500D1
:100360004508A1000330C6004608A20001308031D4
:100370005B20813187319B27813182315922813144
:100380008F316A278131083020005E020318CE29A0
:100390005E08473E86008701011FD129833105236E
:1003A0008131503020005C02031CE42964080319E9
:1003B000DE290130C5004508DE07E2290130DE02F2
:1003C000E401E40ADC01E8290130C5004508DC0746
:1003D00000305002643003194F02031CF6298131AA
:1003E000112181312000CF01D001AE290130CF078A
:1003F0000030D03DAE292000DB0108305B0203183D
:10040000102A5B35BD3E860087010030C03FC13FEA
:100410000130B6003608DB0708305B02031C012AF6
:10042000DB0108305B020318222A5B08CD3E860000
:10043000870181010130B6003608DB0708305B0216
:10044000031C152ADB0108305B020318342A5B0801
:10045000473E8600870181010130B6003608DB0780
:1004600008305B02031C272A2130B6003608210021
:10047000CD00CD302000B6003608B2000130B30008
:100480000030B40070308631602681318130200028
:10049000B60036082100CD00CD302000B600360869
:1004A000B2000130B3000030B400703086316026F5
:1004B00008002100CD012000DB01DB0A11305B02C6
:1004C0000318A72A0230A1000030A2005B08B60082
:1004D000B7013608A3003708A4008231B322823165
:1004E000200021080907BD3E860087010108B800E9
:1004F0005B08CD3E86008701380881000230A100EC
:100500000030A2005B08B600B7013608A300370828
:10051000A4008231B3228231200021080907BD3EA8
:1005200086008701403FB800413FB9003908BA0052
:100530005B08013ECD3E860087013A08810002300B
:10054000B6003608DB0711305B02031C622ACD308F
:10055000B6003608B2001130B3000030B40070307D
:100560008631602608002000A701A21FBE2AA1092B
:10057000A209A10A0319A20AA701A70AA41FC92A4E
:10058000A309A409A30A0319A40A0130A500250898
:10059000A706A801A901210822040319F82AA60127
:1005A000A60AA21BDD2A0130A135A20D890BD42A8F
:1005B0000130A5002508A607D12A0130A835A90DCC
:1005C000890BDE2A22082402031DE82A21082302BF
:1005D000031CEF2A2108A3022208A43B281401309F
:1005E000A236A10C890BF02A0130A602031DDD2AD8
:1005F00027080319002BA809A909A80A0319A90AA1
:100600002908A2002808A10008002000DB0108300A
:100610005B0203181B2B5B35BD3E86008701003053
:10062000C03FFF30C13F0130BB003B08DB07083053
:100630005B02031C0B2B82315922833109302000CD
:10064000BC001E30BB00E430890B242BBB0B242BD9
:10065000BC0B242B00008F316A2783318231592251
:1006600083312000DB0108305B020318442B5B0858
:10067000473E8600870181010130BB003B08DB0754
:1006800008305B02031C372B823159228331200052
:10069000DD015D080319492B0330BB003B08DE0078
:1006A000DC01CF01D001D301D40108007E1C5A2BFC
:1006B0008331F42B8F31102783310318692B862B5C
:1006C0008E31312608008E31392608008E314926B8
:1006D000080021003A082000AB002B08AA001130C6
:1006E000A03E86008701413F8A00403F0A008331D7
:1006F000013A0319662B033A0319602B013A0319D7
:10070000632B073A0319662B662B08002100A01102
:100710000230A03E86008701403F84008501810AA7
:1007200000088D31FD25833101302100A302003006
:10073000A43B23082404031D9F2B0630A02B033069
:100740002000AC000030AD002C0808002000A40000
:10075000A501A50A2100A018F12B20002408A30060
:1007600023082100A1002010A014A0110E302000A9
:10077000A30023082100A900F430A7000130A8003D
:100780002015F130AB000D30AC00B701F130AD00F9
:100790000D30AE00B801F130AF000D30B000B9013E
:1007A000F130B1000D30B200BA01F730B3000D30B6
:1007B000B400BB018E31902683318D317C2583318D
:1007C00067302000A1000D30A2008E310326833156
:1007D00086302000A1000630A2008E3109262000BC
:1007E000A5012000250808008E31DE26833103187C
:1007F000032C1F2C8D319C2508008D31A02508006D
:100800008D31A825080021003A08FA007A08F9007D
:100810001130A03E86008701413F8A00403F0A0018
:100820008431013A0319002C033A0319FA2B013AD7
:100830000319FD2B073A0319002C002C0800210096
:10084000A0110230A03E86008701403F8400850150
:10085000810A00088D31C425833101302100A302B3
:100860000030A43B23082404031D382C0630392C07
:100870000330FB000030FC007B0808002000BA01B8
:10088000B71F492CB609B709B60A0319B70ABA0146
:10089000BA0AB51F502CB409B509B40A0319B50A30
:1008A000340835040319772CB901B90AB51B622C39
:1008B0000130B435B50D890B592C0130B80038081A
:1008C000B907562C35083702031D682C3408360248
:1008D000031C6E2C3408B6023508B73B0130B53620
:1008E000B40C890B6F2C0130B902031D622C3A083D
:1008F00003197F2CB609B709B60A0319B70A3708D6
:10090000B5003608B40008007E1C882C8431CA2C3F
:100910008D318E2584312000AB0021002208860015
:10092000870120002B0881000130AB002B0821003B
:10093000A2070130A3020030A43B230824040319BA
:10094000A52C8D31B825053008002015AD2C8E3131
:10095000612608008E315926080021003708200042
:10096000AB002B08AA000B30A03E86008701413F58
:100970008A00403F0A008431013A0319AA2C033A45
:100980000319A72C013A0319A72C073A0319AA2C1B
:10099000AA2C08008D3173258431FA002100220829
:1009A000860087017A0881000130FA007A08A207E0
:1009B0000130A3020030A43B230824040319E42CD3
:1009C0008D319425053008002015EC2C8D31B4258F
:1009D00008008D31B025080021003708FA007A0898
:1009E000F9000B30A03E86008701413F8A00403F5E
:1009F0000A008431013A0319E92C033A0319E62C61
:100A0000013A0319E62C073A0319E92CE92C0800EE
:100A100020006308A4006208A3006108A200600827
:100A2000A1004130A800C630A7004E30A6006D30AE
:100A3000A5008531AF25853120002408E300230877
:100A4000E2002208E1002108E0003930E007303000
:100A5000E13D0030E23D0030E33D6008AF00610859
:100A6000B0006208B1006308B2001030B300B237C2
:100A7000B10CB00CAF0CB30B372DFF302F05AD0010
:100A80007F303005AE0008002000A40024080F3994
:100A9000A1000430A135890B4A2D2408A20004309E
:100AA000A236890B502D22080F392104A3002308F8
:100AB000A40024083339A1000230A135890B5D2D33
:100AC0002408A2000230A236890B632D2208333994
:100AD0002104A3002308A40024085539A1000130F3
:100AE000A135890B702D243655392104A200220826
:100AF000A4002408080022008C018D018E013730EB
:100B000021008C00F0308D00FF308E00CF302300AC
:100B10008E00A0308D0017308C0024008D018C01D8
:100B200010308E002100951325008C018D018E015F
:100B300027001912181617165D302000A1000D307D
:100B4000A2008D31DF258B150E303C00A0000C304B
:100B5000A10010303D009E0011309C0008000030C4
:100B60002000AC000030AB000030AA000030A9002B
:100B7000211CC22D2508A9072608AA3D2708AB3D40
:100B80002808AC3D0130A535A60DA70DA80D890B91
:100B9000C32D0130A436A30CA20CA10C890BCA2DC5
:100BA0002408230422042104031DB82D2C08A400CA
:100BB0002B08A3002A08A2002908A10008007E1C17
:100BC000E32D8631372E21002015F02D8E31412660
:100BD00008008D319125033008008E314926080028
:100BE000210037082000AB002B08AA000B30A03EE4
:100BF00086008701413F8A00403F0A008531013A63
:100C00000319ED2D033A0319E62D013A0319E62DD8
:100C1000073A0319E92DED2D08007E1C112E8731AE
:100C2000192F2100A01102302000AB002B08210059
:100C3000AA00202E8E31412608008E314926080058
:100C4000210039082000AB002B08AA000F30A03E7D
:100C500086008701413F8A00403F0A008631023A00
:100C600003191A2E013A03191A2E1D2E080021000D
:100C70002015442E8D31A42508008D3176250330B2
:100C800008008D31A825080021003708FA007A08ED
:100C9000F9000B30A03E86008701413F8A00403FAB
:100CA0000A008631013A0319412E033A03193A2EFC
:100CB000013A03193A2E073A03193D2E412E080036
:100CC0002000B500200035088331A6238631003A84
:100CD0000319622E20003408A2003308A100320854
:100CE0008F317C278631EB302000A6000D30A70025
:100CF000A8018F311D2786318D31C025863187317E
:100D0000D7278631013A031D08007F2E7E1C8A2ECC
:100D100087315C2F8D317C2586312100A01D9B2ED3
:100D20008F3110278631031C9B2E0F302000AE0020
:100D30002E082100A90021002935203E860001301F
:100D40008700413F8A00403F0A0086312000AE0004
:100D50002E082100A90008002000A5002108220477
:100D60000319C32E2535AB3E860087012108C03FFD
:100D70002208C13F2308A4002508B73E860087014A
:100D80002408810008002535AB3E86008701F1303C
:100D9000C03F0D30C13F2508B73E86008701810165
:100DA00008002000B000B101B10A21002018F22E85
:100DB00020142000B10130080319E22E2100A901FE
:100DC000A90AE82E02302000AF002F082100A90058
:100DD0008D31822586318E31862686310318F22E9A
:100DE0008E31BB26200031080800F4007008710421
:100DF00003190B2F7435AB3E860087017008C03F86
:100E00007108C13F7208F3007408B73E860087017D
:100E10007308810008007435AB3E86008701F1300D
:100E2000C03F0D30C13F7408B73E86008701810185
:100E300008002100A0110230FA007A08AA00262F2B
:100E40008D31A42508008D31A8250800210039081E
:100E5000FA007A08F9000F30A03E86008701413F72
:100E60008A00403F0A008731023A0319202F013AD5
:100E70000319202F232F080069340E34EA340E346E
:100E8000A5340E3456340334843404347C340E34A4
:100E9000DF34053431340E3439340E3441340E34F9
:100EA00049340E3451340E3459340E3461340E3416
:100EB0009A340E340D3406348D3179258731210072
:100EC000A01D6C2F8E31DE268731031C6C2F0F3056
:100ED000FD007D082100A90021002935203E860063
:100EE00001308700413F8A00403F0A008731FD0002
:100EF0007D082100A90008002000BE003E08BC00BB
:100F0000BD01BC09BD09BC0A0319BD0A3B083C0769
:100F1000B4003D0803183D0AB50085310825873126
:100F200020002E08B7002D08B60084313E24200092
:100F300034083E0708002000DB0108305B0203187C
:100F400008005B08473E860087010108853144257B
:100F500087312000A500A6015B35BD3E86008701D4
:100F6000250881044131260881040130A5002508A7
:100F7000DB079D2F7E1CBE2F8F31E92F20002A0812
:100F800086008701403FA100413FA2002A08023E9F
:100F90008600870101088F317C27873100302000CF
:100FA000A600A700A8018F31032702300800200007
:100FB000A201A20A21002018EF2FA010FF3020006C
:100FC000A10021082100A1008D317C2587318D31C0
:100FD0007F2521002A082000A1002108A20020006E
:100FE00022080800F3002100201D08007308F20009
:100FF0007208A2007108A4007008A3002011080064
:101ABA00080008000800013008000530080020006E
:101ACA00911108008D31642508002400961408003D
:101ADA002400161508002400961508002400110891
:101AEA00080020009015080020009011080020002E
:101AFA009011080021009011080024001614080013
:101B0A0024009614080024001615080024009615CF
:101B1A00080024001108080020009015080024007D
:101B2A0096121616080024009616161608008D310D
:101B3A006A25013008008D316A25023008008D318E
:101B4A006A25013008008D316D25003008008D317D
:101B5A009425053008008D3198250A3008008D310A
:101B6A009825093008002400961216160800240049
:101B7A0096161616080000308631D1260800F000A5
:101B8A00700824009100080021002010AA010E30DC
:101B9A000800013400340034003401342700191ECF
:101BAA0008008E31F62608002100A0118D3170251B
:101BBA000430080020002208E6002108E500080099
:101BCA0085317B258D318E31722608007E1CEF2DE2
:101BDA0080310228033008007E1CF52D8D31602DDE
:101BEA00013008007E1CFB2D8D31622D0530080066
:101BFA002000A100210824009100080020002208EA
:101C0A00D8002108D700080020002208D6002108A1
:101C1A00D5000800640080010131890B102E0034C0
:101C2A00FE0012001E00FE0B162E00348D315E25BA
:101C3A0021002010AA010E3008002100A01521352C
:101C4A008D31C425033008002100A0150314210D8D
:101C5A008D31C425053008007E1C352E8D319C2D12
:101C6A008D318525013008007E1C3D2E8D31A02D39
:101C7A008D318525023008007E1C452E8D31A42D1C
:101C8A008D318525013008007E1C4D2E8D31A82D01
:101C9A008D318825003008007E1C552E8D31AC2DE3
:101CAA008D31B825053008007E1C5D2E8D31B02D92
:101CBA008D31BC250A3008007E1C652E8D31B42D6D
:101CCA008D31BC25093008007E1C6D2E8D31C92D41
:101CDA0021002010AA010E30080078302100990056
:101CEA0098012200960121001A1B0800782E7E1CFA
:101CFA00802E8D31D92D2100A0118D318B250430F4
:101D0A0008002100100C2000A100A10C210C0139AF
:101D1A00A200220C08002400951A08009401283019
:101D2A00950096014F30920008007E1C9E2E8E313F
:101D3A001B2E8D315F2521002010AA010E300800CC
:101D4A007E1CA92E8E31222E2100A01521358D311F
:101D5A00FD25033008002000901908002000901982
:101D6A000800A0300032890BB72EB32E2100201CA8
:101D7A00080000308E31B0268E31863186268E31AB
:101D8A00BB2E2000DD01DD0AE4015C0A031908000C
:101D9A00FF30F0007008DC0008007608F1007508D2
:101DAA00F0007708F8007808F20000308631F5264E
:101DBA00080024001608BF3940389600160E890C10
:101DCA00890C0139F000700C08007E1CEE2E8E3151
:101DDA00292E2100A0150314210D8D31FD25053072
:101DEA0008002000650866040319002F66088A00A7
:101DFA0065080A008E3127001912080020002708FA
:101E0A00A2002608A1002808A9002908A30000307A
:101E1A008631AC26080024001608BF3940389600DF
:101E2A00160E890C890C01392000A100210C08002A
:101E3A0020002708A2002608A1002808A9002908CE
:101E4A00A30002308631AC2608000230F0000030D0
:101E5A00F10079088731F2278F310030F500F6005A
:101E6A00F7018E31D226043008000130F00000302C
:101E7A00F10079088731F2278F310030F500F6003A
:101E8A00F7018E31D226043008000130F00000300C
:101E9A00F10079088731F2278F310030F500F6001A
:101EAA00F7018E31D226023008000230F0000030ED
:101EBA00F10079088731F2278F310030F500F600FA
:101ECA00F7018E31D226023008002000DB010830EB
:101EDA005B02031808005B35BD3E860087010030AF
:101EEA00C03FC13F0130A1002108DB076C2F200051
:101EFA00A4002100201D080020002408A3002308B4
:101F0A002100A200200022082100A40020002108AC
:101F1A002100A300201108007E1C952F8F312A2F43
:101F2A0002302000A1000030A2002A088F317C274D
:101F3A008F3100302000A600A700A8018F310327A7
:101F4A00043008007E1CAB2F8F313A2F013020005D
:101F5A00A1000030A2002A088F317C278F3100307F
:101F6A002000A600A700A8018F310327043008002B
:101F7A007E1CC12F8F314A2F01302000A100003072
:101F8A00A2002A088F317C278F3100302000A6005A
:101F9A00A700A8018F310327023008007E1CD72F23
:101FAA008F315A2F02302000A1000030A2002A08E7
:101FBA008F317C278F3100302000A600A700A801AE
:101FCA008F31032702300800790886008701403FD5
:101FDA00F000413FF1007908023E860087010108BE
:101FEA008731F2278F310030F500F600F7018E3184
:061FFA00D22602300800AF
:020000040001F9
:06000E00FC3FFF3F9F3F95
:00000001FF
