:1000000080312E28033008007E14803120007F08C4
:10001000A1008B190B1C102888317B2080312928E6
:100020000B1F29282100911D1E282000911D1E282C
:100030005E088A005D080A00803129282100901D91
:1000400029282000901D29285C088A005B080A00E6
:10005000803120002108FF007E1009008031302807
:100060007630840088308500653086000030870057
:1000700005308831BD2080313930840088308500DA
:10008000C33086000030870003308831BD208031C6
:100090009C3084008B308500403086000130870022
:1000A00020308831BD208031103084008D308500B3
:1000B000A0308600013087002A308831BD20803191
:1000C000633084008730850020308600023087004E
:1000D00050308831BD2080317C3084008B308500E9
:1000E000A03086000230870020308831BD2080316A
:1000F00059308400003085000C308831B7208031C1
:10010000A03084000030850023308831B720803152
:10011000203084000130850020308831B7208031C4
:10012000CA3084000130850019308831B720803111
:10013000203084000330850040308831B7207E10A5
:1001400020008331982B2700E300E401E5010A3009
:100150006306031DCF2803302000D300530821007D
:10016000C50038302700D9000130DA00C230DB008A
:100170000130DC005830DD000130DE00BA30DF0035
:100180000130E0003830E1000130E2002030200092
:10019000D3005308BD00D9308231EC2280310B30BE
:1001A000270063060319D8280A306306031D0129B6
:1001B0003830AD000130AE00B230AF000130B000D9
:1001C0005030B1000130B2004830B3000130B4000B
:1001D0004030B5000130B600AA30B7000130B80099
:1001E0005830B9000130BA003830BB000130BC00D3
:1001F00038302000D3005308BD00AD308231EC22EE
:1002000080310C3027006306031D3929023020009D
:10021000D30053082100C50038302700BD0001304D
:10022000BE005030BF000130C0004830C100013076
:10023000C2004030C3000130C400AA30C500013004
:10024000C6005830C7000130C8003830C90001303E
:10025000CA0030302000D3005308BD00BD308231C9
:10026000EC228031210041082700E50021004008F0
:100270003F2921003F082700E50021003E08270014
:10028000E4000A302000AA000030AB001030A200C9
:100290002730A300270065082000A5002700640878
:1002A0002000A4008D31F925803120002308AD0005
:1002B0002208AC008D313A25803120002A08D30075
:1002C00053082700A8000A302000AA000030AB0025
:1002D000E830A2000330A300270065082000A50035
:1002E000270064082000A4008D31F925803120000A
:1002F0002308AD002208AC008D313A258031200062
:100300002A08D30053082700A9000A302000AA00B9
:100310000030AB006430A2000030A3002700650865
:100320002000A500270064082000A4008D31F925D5
:10033000803120002308AD002208AC008D313A2521
:10034000803120002A08D30053082700AA000A3071
:100350002000AA000030AB000A30A2000030A30049
:10036000270065082000A500270064082000A400DD
:100370008D31F925803120002308AD002208AC0022
:100380008D313A25803120002A08D30053082700F8
:10039000AB000A302000AA000030AB00270065083F
:1003A0002000AD00270064082000AC008D313A2504
:1003B000803120002A08D30053082700AC00CA303F
:1003C000860001308700A0308400033085000830AB
:1003D0002000D30016001A00D30BEA29A030270012
:1003E000CB000330CC002808A03E860001308700F7
:1003F0000108CD000230CE002908A03E8600013061
:1004000087000108CF000230D0002A08A03E8600F5
:10041000013087000108D1000230D2002B08A03E35
:100420008600013087000108D3000230D4002C0878
:10043000A03E8600013087000108D5000230D600BA
:10044000A030D7000330D80030302000D30053084C
:10045000BD00CB308231EC222100C501C50A080065
:100460002000AA002303031D622A0130A4000030EB
:10047000A5002A0A3D2AA435A50D890B3B2A223561
:10048000203E860001308700240881044131250880
:1004900081040130A4000030A5002A08083E890A22
:1004A000532AA435A50D890B512AA409A509223583
:1004B000203E86000130870024088105413125084F
:1004C0008105080002302306031D932A0130A40091
:1004D0000030A5002A08083E890A702AA435A50D17
:1004E000890B6E2A2235203E8600013087002408C1
:1004F00081044131250881040130A4000030A500A9
:100500002A0A842AA435A50D890B822AA409A509E3
:100510002235203E860001308700240881054131C4
:1005200025088105080003302306031DBE2A01307B
:10053000A4000030A5002A0A9F2AA435A50D890B26
:100540009D2A0130A6000030A7002A08083E890A2B
:10055000AB2AA635A70D890BA92A24082604A800D2
:1005600025082704A9002235203E86000130870097
:100570002808810441312908810408002308031D4B
:1005800008000130A4000030A5002A08083E890AAE
:10059000CB2AA435A50D890BC92AA409A5090130C8
:1005A000A6000030A7002A0AD72AA635A70D890B76
:1005B000D52AA609A70924082605A8002508270585
:1005C000A9002235203E86000130870028088105D9
:1005D00041312908810508002000D000E1010830E0
:1005E00061020318012B6108303E8600013087004C
:1005F00081010130BE003E08E10708306102031CA2
:10060000F32AD1013D0851020318080051080739A7
:10061000BE003E08CF00D2010830520203187C2BE6
:100620005208BE00BF010830A2000030A3005108EC
:10063000C000C1014008A4004108A500873111276E
:100640008231200022080907023E5007C2004208FA
:10065000860003308700403FC300413FC4003E088E
:10066000430786003F08443D87000108C5004F034B
:10067000FF3A083E890A3D2BC536890B3C2B5208B0
:10068000C600C7010830A2000030A3005108C8000E
:10069000C9014808A4004908A50087311127823103
:1006A0002000220809075007CA004A0886000330C4
:1006B0008700403FCB00413FCC0046084B078600F7
:1006C00047084C3D87000108CD004F0A682BCD3507
:1006D000890B672B4D084504CE005208303E86003A
:1006E000013087004E0881000130BE003E08D2076D
:1006F00008305202031C102B8931E02182318631EF
:10070000BD26823186310726823103302000BF00AA
:10071000D830BE004130890B8B2BBE0B8B2BBF0B0F
:100720008B2B003201302000BE003E08D107022B87
:1007300088318D2083318B170B178531A6258331A6
:1007400092302000A2000930A30088318720833135
:10075000210044082000A300210043082000A2003B
:100760008B311C238331200023082100BF0020008F
:1007700022082100BE003E0A3F3003193F06031D38
:10078000D92BBE01BF0144082000B000210043085E
:100790002000AF002030D7005708B10021003F08EB
:1007A0002000B30021003E082000B2008E31E02678
:1007B000833100308431B424833120006308D700B2
:1007C0005708A2000330D8005808A3000130823136
:1007D000302283318631BD2683318631072683312D
:1007E0008931E02183310830200063020318FF2B98
:1007F0006308303E860001308700011F032C013062
:100800008431B4248331503020006202031C162C42
:1008100069080319102C0130D7005708E307142C7E
:100820000130E302E901E90AE2011A2C0130D700A4
:100830005708E20700305A02643003195902031CBA
:10084000282C84312D2483312000D901DA01DD2BBD
:100850000130D9070030DA3DDD2B2000E1010830FE
:1008600061020318492C6108303E86000130870080
:100870000135C0006108303E860001308700400825
:1008800081000130C0004008E10708306102031C0C
:10089000332C03306406031DAE2C0730C000400823
:1008A000BC0004308A31FD2284312000C10041089F
:1008B000E0006008C0004008BC0001308A31FD2221
:1008C00084312000C1004108DF00E1015F086102BE
:1008D0000318752C6108303E860001308700011432
:1008E0000130C0004008E107662C0730C000400816
:1008F000E1005F08C000C101C009C109C00A0319B5
:10090000C10A60084007C20041080318410AC30039
:10091000C209C309C20A0319C30A4208083EC40037
:100920000030433DC5004508803A803C031D9A2CA9
:1009300044086102031CA62C20006108303E86009A
:100940000130870001140130E102792C2000E4011C
:1009500001302100C0070030C13D080001302000F7
:10096000C0004008E40708002000D600560803191C
:10097000092DE101083061020318CF2C6135203EBA
:100980008600013087000030C03FFF30C13F01309A
:10099000D4005408E10708306102031CBE2C8631E4
:1009A0000726843109302000D5001E30D400E43001
:1009B000890BD82CD40BD82CD50BD82C000089311E
:1009C000E0218431210041083F02031DE92C400849
:1009D0003E020318072D4108BF004008BE0044082E
:1009E0002000B000210043082000AF002030D400D8
:1009F0005408B10021003F082000B30021003E0848
:100A00002000B2008E31E02684310A300A2D0C30ED
:100A10000A2D0B308031A32084318931E0218431CB
:100A20008631072684312000E10108306102031875
:100A3000272D6108303E860001308700810101309A
:100A4000D4005408E10708306102031C192D8631D7
:100A5000072684312100C201420803192C2D0330DE
:100A60002000D4005408E300E201D901DA0121009A
:100A7000C001C1010800E03020002505AB001F3097
:100A80002605AC0000308B1B0130AD002C0826067B
:100A9000031D4C2D2B082506031D08008B1326086B
:100AA000A3002508A2008B313C23853123001513B8
:100AB000151595162000AE0120302E0203189D2D2D
:100AC0002508230091002000260823009200200022
:100AD0002E352707A8002808860003308700010864
:100AE0002300930020002E352707A8002808860041
:100AF00003308700403FA900413FAA002A08230095
:100B000094001F3020002E06031D882D230095120F
:100B1000553023009600AA3096009514000000007E
:100B200001302000A5070030A63D0130A8002808AC
:100B3000AE0720302E02031C602D2300151120006B
:100B40002D0C031C8B1303188B1708002000E101E8
:100B5000083061020318BC2D6135203E860001304B
:100B600087000030C03FC13F0130B8003808E107BE
:100B700008306102031CAC2DE1010830610203184A
:100B8000CF2D6108D23E86000130870081010130FF
:100B9000B8003808E10708306102031CC12DE101EB
:100BA000083061020318E22D6108303E86000130F2
:100BB000870081010130B8003808E1070830610280
:100BC000031CD42D2130B80038082300D200D230C5
:100BD0002000B8003808B4000130B5000030B6007D
:100BE00070308C31BD24853181302000B800380848
:100BF0002300D200D2302000B8003808B400013001
:100C0000B5000030B60070308C31BD2408002300E0
:100C1000D2012000E101E10A113061020318592ECE
:100C20000230A2000030A3006108B800B901380802
:100C3000A4003908A5008731112786312000220839
:100C40000907203E8600013087000108BA006108CC
:100C5000D23E8600013087003A0881000230A200AF
:100C60000030A3006108B800B9013808A4003908B1
:100C7000A500873111278631200022080907203E70
:100C8000860001308700403FBA00413FBB003B086F
:100C9000BC006108013ED23E8600013087003C085E
:100CA00081000230B8003808E10711306102031CEE
:100CB000102ED230B8003808B4001130B500003022
:100CC000B60070308C31BD2408007E1C692E87313F
:100CD000B32F8931C62186310318782E952E88319D
:100CE000D92008008831E12008008831F12008006F
:100CF00021003B082000AC002C08AB001230A03EC5
:100D000086008701413F8A00403F0A008631013A50
:100D10000319752E033A03196F2E013A0319722E27
:100D2000073A0319752E752E08002100A01123081B
:100D30002000AD00210022082000AC002100A20A02
:100D40000319A30A20002C0886002D08870001083B
:100D50008831A520863101302100A4020030A53B56
:100D600024082504031DB62E0630B72E03302000BC
:100D7000AE000030AF002E0808002000E10108306E
:100D800061020318080021004503031DD52E200031
:100D90006108303E86000130870001088E312E2622
:100DA00086312000A600A701022F0230210045064F
:100DB000031DEB2E20006108303E860001308700C5
:100DC00001088E312E2686312000A600A7012608B4
:100DD000A700A601022F20006108303E86000130E6
:100DE000870001088E312E2686312000A60061087A
:100DF000303E86000130870001088E312E26863174
:100E00002000A7006135203E8600013087002608BB
:100E100081044131270881040130A6002608E1073A
:100E2000BF2E2000A801A31F1C2FA209A309A20AFC
:100E30000319A30AA801A80AA51F272FA409A50919
:100E4000A40A0319A50A0130A6002608A806A901CC
:100E5000AA01220823040319562FA701A70AA31BDE
:100E60003B2F0130A235A30D890B322F0130A60094
:100E70002608A7072F2F0130A935AA0D890B3C2F73
:100E800023082502031D462F22082402031C4D2F90
:100E90002208A4022308A53B29140130A336A20C82
:100EA000890B4E2F0130A702031D3B2F2808031981
:100EB0005E2FA909AA09A90A0319AA0A2A08A300E8
:100EC0002908A200080000347E3442347E34023403
:100ED00002340234003400347E34423442347E34EE
:100EE00042347E34003400347E340234023402341E
:100EF00002340234003400347E3440347E344234D0
:100F000042347E34003400347E34403440347E3405
:100F100002347E34003400344434443444347E3467
:100F200004340434003400347E34023402347E3419
:100F300002347E34003400347E34023402347E3491
:100F400040347E3400340034783418341834183483
:100F500018347E34003400347E3442344234423417
:100F600042347E34003489317A2187310318C22F0C
:100F7000DE2F88314420080088314820080088315D
:100F80005020080021003B08FA007A08F9001230CE
:100F9000A03E86008701413F8A00403F0A0087311A
:100FA000013A0319BF2F033A0319B92F013A031964
:100FB000BC2F073A0319BF2FBF2F08002100A01133
:100FC0002308FB002208FA00A20A0319A30A7A08E0
:100FD00086007B088700010888316C20873101304A
:100FE0002100A4020030A53B24082504031DFA2F8C
:100FF0000630FB2F0330FC000030FD007C080800A9
:10100400080008000800013008000530080020002E
:101014009111080088310920080024009614080062
:101024002400161508002400961508002400110851
:1010340008002000901508002000901108002000EE
:1010440090110800210090110800240016140800D3
:101054002400961408002400161508002400961590
:101064000800240011080800200090150800053429
:101074001F34013424009612161608002400961614
:101084001616080088310F200130080088310F201F
:101094000230080088310F20013008008831122006
:1010A4000030080088313C20053008008831402099
:1010B4000A300800883140200930080024009612C4
:1010C40016160800240096161616080000308C31F7
:1010D40025240800F0007008240091000800210075
:1010E4002010AB010E300800013400340034003409
:1010F40001342700191E080089319F2108002100AE
:10110400A011883115200430080020002308EB00CA
:101114002208EA0008008D31C525883189311A2159
:1011240008007E1C972880310228033008007E1CAA
:101134009D2888310528013008007E1CA3288831A9
:101144000728053008002000A2002208240091008E
:10115400080020002308DE002208DD00080020002B
:101164002308DC002208DB00080064008001013150
:10117400890BB8280034FE0012001E00FE0BBE28A6
:1011840000348831032021002010AB010E30080008
:101194002100A015213588316C200330080021007E
:1011A400A0150314210D88316C20053008007E1C25
:1011B400DD288831442888312A20013008007E1C2B
:1011C400E5288831482888312A20023008007E1C0E
:1011D400ED2888314C2888312A20013008007E1CF3
:1011E400F5288831502888312D20003008007E1CD5
:1011F400FD288831542888316020053008007E1C81
:10120400052988315828883164200A3008007E1C5A
:101214000D2988315C2888316420093008007E1C3F
:1012240015298831712821002010AB010E300800E7
:1012340078302100990098012200960121001A1BA0
:10124400080020297E1C2829883181282100A0112A
:1012540088313020043008002100100C2000A20046
:10126400A20C220C0139A300230C08002400951AB7
:10127400080094012830950096014F309200080030
:101284007E1C46298831C32888310420210020107F
:10129400AB010E3008007E1C51298831CA28210078
:1012A400A01521358831A5200330080020009019AD
:1012B4000800200090190800A0300032890B5F2933
:1012C4005B292100201C0800003089315821893114
:1012D4008C316E24893163297608F1007508F00099
:1012E4007708F8007808F20000308C3101240800F7
:1012F40024001608BF3940389600160E890C890C54
:101304000139F000700C08007E1C8A298831D1282C
:101314002100A0150314210D8831A52005300800F3
:101324002100C201C20A2000E901620A031908006F
:10133400FF30F0007008E200080020006A086B0427
:101344000319A9296B088A006A080A008931270051
:10135400191208002100201D08007108A30070085C
:10136400A2007308A5007208A40020110800200040
:101374002808A3002708A2002908AA002A08A40014
:1013840000308C314924080024001608BF39403845
:101394009600160E890C890C01392000A200220C3B
:1013A400080020002808A3002708A2002908AA0092
:1013B4002A08A40002308C31492408002000E101ED
:1013C40008306102031808006135203E86000130B0
:1013D40087000030C03FC13F0130A2002208E1076E
:1013E400E2297908F000FF39031D0030F1000230D2
:1013F400F2000030F3008931AC2189310030F5006E
:10140400F600F70189316E21043008007908F000F4
:10141400FF39031D0030F1000130F2000030F30009
:101424008931AC218A310030F500F600F7018931A9
:101434006E21043008007908F000FF39031D0030E4
:10144400F1000130F2000030F3008931AC218A311F
:101454000030F500F600F70189316E2102300800F2
:101464007908F000FF39031D0030F1000230F2006A
:101474000030F3008931AC218A310030F500F600E8
:10148400F70189316E21023008002100201D080077
:10149400200023082100A300200022082100A2002C
:1014A400200025082100A500200024082100A40014
:1014B400201108007908023E860087010108F00027
:1014C4000030F100790886008701403FF200413F77
:1014D400F3008931AC218A310030F500F600F701C0
:1014E40089316E21023008002000A301A30A2100E3
:1014F40020188E2AA010FF302000A200220821000C
:10150400A100883121208A318831242021002B0830
:101514002000A2002208A3002000230808007E1C4B
:10152400952A8931F32920002B08A200FF39031DD5
:101534000030A3000230A4000030A5008A31472205
:101544008A3100302000A700A800A9018931B921FF
:10155400043008007E1CB02A8A31082A20002B0897
:10156400A200FF39031D0030A3000130A4000030A5
:10157400A5008A3147228A3100302000A700A80044
:10158400A9018931B921043008007E1CCB2A8A3193
:101594001D2A20002B08A200FF39031D0030A300E0
:1015A4000130A4000030A5008A3147228A3100307E
:1015B4002000A700A800A9018931B9210230080040
:1015C4007E1CE62A8A31322A20002B08A200FF3929
:1015D400031D0030A3000230A4000030A5008A31AE
:1015E40047228A3100302000A700A800A9018931D0
:1015F400B921023008002000BF003F08BD00BE0131
:10160400BD09BE09BD0A0319BE0A3C083D07B50061
:101614003E0803183E0AB6008E3165268A31200042
:101624002F08B8002E08B7008F3125272000350871
:101634003F07080000308B1B01302000A4008B13EF
:101644002208230091002000230823009200151390
:101654001514000000002000240C031C8B13031835
:101664008B17230014082000A30023001308200074
:10167400A200080000308B1B01302000A4008B1353
:101684002208230091002000230823009200151350
:101694001516151555309600AA30960095140000BD
:1016A4000000230015112000240C031C8B130318C5
:1016B4008B1708007E1C602B8A315C2A20002B08C3
:1016C400023E860087010108A2000030A3002B0817
:1016D40086008701403FA400413FA5008A3147228C
:1016E4008B3100302000A700A800A9018931B9215D
:1016F4000230080011340934863409344D34093475
:10170400653406346B340F342434093467340D34AF
:10171400D9340834E1340834E9340834F134083471
:10172400F9340834013409340934093442340934AD
:10173400E6340C3400347E3442344234423442348D
:101744007E34003400347E34603460346034603479
:101754007E34003400347E34403440347E340234E9
:101764007E34003400347C3440347034703440347B
:101774007C34003488311E208B312100A01DCD2BF8
:1017840089317A218B31031CCD2B0F302000A0002E
:1017940020082100AA0021002A35A03E860002303C
:1017A4008700413F8A00403F0A008B312000A0009F
:1017B40020082100AA0008002100A0110230FA002C
:1017C4007A08AB00EB2B88314C200800883150207C
:1017D400080021003A08FA007A08F9001030A03E07
:1017E40086008701413F8A00403F0A008B31023A5C
:1017F4000319E52B013A0319E52BE82B0800F40043
:10180400700871040319172C7435AC3E86008701E7
:101814007008C03F7108C13F7208F3007408B83EF5
:10182400860087017308810008007435AC3E860089
:1018340087019930C03F0830C13F7408B83E860024
:101844008701810108002000B200B301B30A21001E
:101854002018462C20142000B30132080319362C1A
:101864002100AA01AA0A3C2C02302000B100310850
:101874002100AA00883127208C3189312E218C3116
:101884000318462C89316321200033080800200006
:10189400A600220823040319602C2635AC3E8600DA
:1018A40087012208C03F2308C13F2408A500260859
:1018B400B83E860087012508810008002635AC3E25
:1018C400860087019930C03F0830C13F2608B83EE2
:1018D40086008701810108007E1C722C8B31BC2B91
:1018E400883121208C312100A01D832C8931C6210F
:1018F4008C31031C832C0F302000B00030082100F1
:10190400AA0021002A35A03E860002308700413F0C
:101914008A00403F0A008C312000B00030082100CA
:10192400AA00080021002015A12C88314C200800B1
:1019340088311B2003300800883150200800210022
:101944003808FA007A08F9000C30A03E86008701B6
:10195400413F8A00403F0A008C31013A03199E2C12
:10196400033A0319972C013A0319972C073A0319E0
:101974009A2C9E2C08002000B700200037088F31D5
:10198400B2278C31003A0319BF2C20003408A2007E
:101994000130A3003608A5003508A4008A31472287
:1019A4008C3193302000A7000830A800A9018931A8
:1019B400D3218C31883168208C318A3176228C3164
:1019C400013A031D0800DF2C7E1CEA2C8B31DE2B30
:1019D4002100A01102302000AC002C082100AB0033
:1019E400F92C8831E92008008831F1200800210011
:1019F4003A082000AC002C08AB001030A03E860052
:101A04008701413F8A00403F0A008D31023A0319A1
:101A1400F32C013A0319F32CF62C080068346034D3
:101A24005834503448344034383430342834203432
:101A340000347834483478346034503448340034D2
:101A440000344A3448347A347A344A344A340034D8
:101A54000034443444345434543454347C340034E2
:101A640000344234623452344A344634423400340A
:101A740020002A082B040319622DAF01AF0AAB1B07
:101A84004D2D0130AA35AB0D890B442D0130AE002C
:101A94002E08AF07412D2B082D02031D532D2A08B4
:101AA4002C02031C592D2A08AC022B08AD3B013033
:101AB400AB36AA0C890B5A2D0130AF02031D4D2DF4
:101AC4002D08AB002C08AA0008007E1C6B2D8C315D
:101AD400942C21002015782D8831E92008008831C4
:101AE4003620033008008831F1200800210038082E
:101AF4002000AC002C08AB000C30A03E860087010F
:101B0400413F8A00403F0A008D31013A0319752D87
:101B1400033A03196E2D013A03196E2D073A03197E
:101B2400712D752D080000302000AD000030AC0090
:101B34000030AB000030AA00221CA82D2608AA07FA
:101B44002708AB3D2808AC3D2908AD3D0130A6353A
:101B5400A70DA80DA90D890BA92D0130A536A40C3C
:101B6400A30CA20C890BB02D250824042304220401
:101B7400031D9E2D2D08A5002C08A4002B08A300EE
:101B84002A08A200080022008C018D018E01373042
:101B940021008C00F0308D00FF308E00CF30230008
:101BA4008E00A0308D0017308C0024008D018C0134
:101BB40010308E002100951325008C018D018E01BB
:101BC400270019121816171602302000A200083038
:101BD400A300883187208B150E303C00A0000C3008
:101BE400A10010303D009E0011309C000800200030
:101BF400A801A901220823040319292EA701A70A71
:101C0400A31B0E2E0130A235A30D890B052E013026
:101C1400A6002608A707022E0130A835A90D890BB6
:101C24000F2E23082502031D192E22082402031C4B
:101C3400202E2208A4022308A53B28140130A33631
:101C4400A20C890B212E0130A702031D0E2E290898
:101C5400A3002808A20008002000A50025080F39C9
:101C6400A2000430A235890B342E2508A3000430C9
:101C7400A336890B3A2E23080F392204A400240822
:101C8400A50025083339A2000230A235890B472E5E
:101C94002508A3000230A336890B4D2E23083339BF
:101CA4002204A4002408A50025085539A200013007
:101CB400A235890B5A2E253655392204A300230850
:101CC400A5002508080020006808A5006708A400EE
:101CD4006608A3006508A2004130A900C630A80028
:101CE4004E30A7006D30A6008D3195258E31200031
:101CF4002508E8002408E7002308E6002208E50098
:101D04003930E5073030E63D0030E73D0030E83D4E
:101D14006508B0006608B1006708B2006808B3003F
:101D24001030B400B337B20CB10CB00CB40B942E19
:101D3400FF303005AE007F303105AF000800883138
:101D440018208E31FA00210022088600230887001B
:101D54007A0881000130A2070030A33D0130A402BB
:101D64000030A53B240825040319BC2E88313C20EF
:101D7400053008002015C42E88315C200800883105
:101D84005820080021003808FA007A08F9000C30BD
:101D9400A03E86008701413F8A00403F0A008E3101
:101DA400013A0319C12E033A0319BE2E013A03194D
:101DB400BE2E073A0319C12EC12E0800E0302000C0
:101DC4002F05B6001F303005B7002F081F39B400A7
:101DD4003408B500B8012030380203180F2F380832
:101DE4003607A20037080318370AA3008B311C23D7
:101DF4008E31200038353107B400340886000330B2
:101E040087002208C03F2308C13F0130B4003408D2
:101E1400B80720303802031CF12E35353107B400E1
:101E240034088600033087003208C03F3308C13FBE
:101E34003708A6003608A5003108B4003408A70006
:101E440085313B2508002000BB01B81F302FB7099E
:101E5400B809B70A0319B80ABB01BB0AB61F372F62
:101E6400B509B609B50A0319B60A350836040319C3
:101E74005E2FBA01BA0AB61B492F0130B535B60D2B
:101E8400890B402F0130B9003908BA073D2F3608B5
:101E94003802031D4F2F35083702031C552F350810
:101EA400B7023608B83B0130B636B50C890B562F4D
:101EB4000130BA02031D492F3B080319662FB709E5
:101EC400B809B70A0319B80A3808B6003708B500C4
:101ED40008007E1C6F2F8E31A12E883133208F3164
:101EE4002000AC002100220886002308870020007F
:101EF4002C08810001302100A2070030A33D0130ED
:101F0400A4020030A53B2408250403198D2F883131
:101F14006020053008002015952F8931092108001B
:101F2400893101210800210038082000AC002C0868
:101F3400AB000C30A03E86008701413F8A00403F41
:101F44000A008F31013A0319922F033A03198F2F94
:101F5400013A03198F2F073A0319922F922F080081
:101F64002000A500A601A60A2100A018FD2F20002C
:101F74002508A40024082100A1002010A014A01109
:101F84000E302000A40024082100AA00F430A80088
:101F94000130A90020159930AC000830AD00B8011B
:101FA4009930AE000830AF00B9019930B000083064
:101FB400B100BA019930B2000830B300BB019F30C0
:101FC400B4000830B500BC01893138218F31883123
:101FD40021208F310C302000A2000830A30088316A
:101FE400AB208F316E302000A2000C30A30088316A
:0C1FF400B1202000A601200026080800F3
:020000040001F9
:06000E00FC3FFF3F9F3F95
:00000001FF
