:1000000080312E28053008007E14803120007F08C2
:10001000A1008B190B1C10288931BF2180312928A0
:100020000B1F29282100911D1E282000911D1E282C
:100030005E088A005D080A00803129282100901D91
:1000400029282000901D29285C088A005B080A00E6
:10005000803120002108FF007E1009008031302807
:10006000BA30840089308500653086000030870012
:1000700005308A3101228031210089314D218031C2
:10008000C300A03084008C308500403086000130F1
:10009000870020308A3101228031D43084008730BB
:1000A0008500A0308600013087002A308A31012285
:1000B0008031A230840086308500203086000230F6
:1000C000870050308A3101228031803084008C30AA
:1000D0008500A03086000230870020308A3101225E
:1000E000803159308400003085000C308931FB218B
:1000F0008031A03084000030850023308931FB211D
:100100008031203084000130850020308931FB218E
:100110008031CA3084000130850019308931FB21DB
:100120007E1020008431812C2600E300E401E501EB
:100130000A306306031DC02803302000D300530893
:100140002100C30038302600D9000130DA00C23067
:10015000DB000130DC005830DD000130DE00BA3059
:10016000DF000130E0003830E1000130E2002030F3
:100170002000D3005308BD0059308231DD22803188
:100180000B30260063060319C9280A306306031DD5
:10019000F2283830AD000130AE00B230AF0001308F
:1001A000B0005030B1000130B2004830B30001302F
:1001B000B4004030B5000130B600AA30B7000130BD
:1001C000B8005830B9000130BA003830BB000130F7
:1001D000BC0038302000D3005308BD002D308231E0
:1001E000DD2280310C3026006306031D2A290230EF
:1001F0002000D30053082100C30038302600BD0082
:100200000130BE005030BF000130C0004830C10096
:100210000130C2004030C3000130C400AA30C50024
:100220000130C6005830C7000130C8003830C9005E
:100230000130CA0030302000D3005308BD003D30EB
:100240008231DD228031210041082600E5002100B5
:100250004008302921003F082600E50021003E0823
:100260002600E4000A302000AA000030AB00103065
:10027000A2002730A300260065082000A500260064
:1002800064082000A4008E31D3268031200023088A
:10029000AD002208AC008E311426803120002A08DF
:1002A000D30053082600A8000A302000AA0000301E
:1002B000AB00E830A2000330A30026006508200050
:1002C000A500260064082000A4008E31D3268031CA
:1002D00020002308AD002208AC008E3114268031A6
:1002E00020002A08D30053082600A9000A30200065
:1002F000AA000030AB006430A2000030A30026004A
:1003000065082000A500260064082000A4008E31A6
:10031000D326803120002308AD002208AC008E31A6
:100320001426803120002A08D30053082600AA0092
:100330000A302000AA000030AB000A30A2000030D2
:10034000A300260065082000A50026006408200000
:10035000A4008E31D326803120002308AD0022086E
:10036000AC008E311426803120002A08D3005308B7
:100370002600AB000A302000AA000030AB002600A7
:1003800065082000AD00260064082000AC008E3116
:100390001426803120002A08D30053082600AC0020
:1003A000CA30860001308700203084000330850089
:1003B00008302000D30016001A00D30BDB292030B0
:1003C0002600CB000330CC002808A03E8600013078
:1003D00087000108CD000230CE002908A03E86002B
:1003E000013087000108CF000230D0002A08A03E6B
:1003F0008600013087000108D1000230D2002B08AE
:10040000A03E8600013087000108D3000230D400EE
:100410002C08A03E8600013087000108D50002307C
:10042000D6002030D7000330D80030302000D30071
:100430005308BD004B308231DD222100C301C30AC5
:1004400008002000AA002303031D532A0130A40042
:100450000030A5002A0A2E2AA435A50D890B2C2AC6
:100460002235203E86000130870024088104413176
:10047000250881040130A4000030A5002A08083EA8
:10048000890A442AA435A50D890B422AA409A50985
:100490002235203E86000130870024088105413145
:1004A00025088105080002302306031D842A013037
:1004B000A4000030A5002A08083E890A612AA43554
:1004C000A50D890B5F2A2235203E8600013087006A
:1004D000240881044131250881040130A400003042
:1004E000A5002A0A752AA435A50D890B732AA4092B
:1004F000A5092235203E86000130870024088105A9
:10050000413125088105080003302306031DAF2A69
:100510000130A4000030A5002A0A902AA435A50DB8
:10052000890B8E2A0130A6000030A7002A08083E59
:10053000890A9C2AA635A70D890B9A2A2408260425
:10054000A80025082704A9002235203E8600013096
:100550008700280881044131290881040800230804
:10056000031D08000130A4000030A5002A08083E41
:10057000890ABC2AA435A50D890BBA2AA409A509A4
:100580000130A6000030A7002A0AC82AA635A70D08
:10059000890BC62AA609A70924082605A80025084C
:1005A0002705A9002235203E860001308700280853
:1005B000810541312908810508002000D000E101B2
:1005C000083061020318F22A6108303E86000130CB
:1005D000870081010130BE003E08E107083061025A
:1005E000031CE42AD1013D085102031808005108F8
:1005F0000739BE003E08CF00D2010830520203186E
:100600006D2B5208BE00BF010830A2000030A300CD
:100610005108C000C1014008A4004108A50086316E
:1006200050268231200022080907023E5007C200EE
:100630004208860003308700403FC300413FC400AA
:100640003E08430786003F08443D87000108C50077
:100650004F03FF3A083E890A2E2BC536890B2D2BF6
:100660005208C600C7010830A2000030A30051089C
:10067000C800C9014808A4004908A50086315026D1
:1006800082312000220809075007CA004A08860064
:1006900003308700403FCB00413FCC0046084B076A
:1006A000860047084C3D87000108CD004F0A592BB2
:1006B000CD35890B582B4D084504CE005208303EED
:1006C0008600013087004E0881000130BE003E08E0
:1006D000D20708305202031C012B8B3124238231B4
:1006E0008531FC2582318531462582310330200059
:1006F000BF00D830BE004130890B7C2BBE0B7C2B59
:10070000BF0B7C2B003201302000BE003E08D10719
:10071000F32A2000E101083061020318A52B6108CB
:10072000303E8600013087000135C0006108303E50
:10073000860001308700400881000130C000400879
:10074000E10708306102031C8F2B03306406031D90
:100750000A2C0730C0004008BC0004308C31412412
:1007600083312000C1004108E0006008C00040085B
:10077000BC0001308C31412483312000C10041088C
:10078000DF00E1015F0861020318D12B6108303EF0
:1007900086000130870001140130C0004008E107E5
:1007A000C22B0730C0004008E1005F08C000C10153
:1007B000C009C109C00A0319C10A60084007C20084
:1007C00041080318410AC300C209C309C20A031938
:1007D000C30A4208083EC4000030433DC500450836
:1007E000803A803C031DF62B44086102031C022C56
:1007F00020006108303E860001308700011401307E
:10080000E102D52B2000E40101302100C0070030B7
:10081000C13D080001302000C0004008E407080086
:100820002000D600560803194F2CE1010830610260
:1008300003182B2C6135203E8600013087000030E4
:10084000C03FFF30C13F0130D4005408E1070830F9
:100850006102031C1A2C85314625843109302000A1
:10086000D5001E30D400E430890B342CD40B342C4A
:10087000D50B342C00008B31242384312100410816
:100880003F02031D452C40083E0203184D2C410831
:10089000BF004008BE000A30502C0C30502C0B30EA
:1008A0008031942084318B31242384318531462555
:1008B00084312000E1010830610203186D2C6108C9
:1008C000303E86000130870081010130D400540899
:1008D000E10708306102031C5F2C85314625843115
:1008E0002100C20142080319722C03302000D400F9
:1008F0005408E300E201D901DA012100C001C1017D
:1009000008008931D12184318B170B178431E524FC
:100910008431D6302000A2000A30A3008931CB21D7
:100920008431003084311024843120006308D700E2
:100930005708A2000330D8005808A30001308231C4
:10094000212284318531FC2584318531462584314D
:100950008B31242384310830200063020318B72C24
:100960006308303E860001308700011FBB2C013038
:10097000843110248431503020006202031CCE2CBC
:1009800069080319C82C0130D7005708E307CC2C9D
:100990000130E302E901E90AE201D22C0130D7007B
:1009A0005708E20700305A02643003195902031C49
:1009B000E02C8331892384312000D901DA01952C80
:1009C0000130D9070030DA3D952C2000E1010830D4
:1009D00061020318FB2C6135203E86000130870040
:1009E0000030C03FC13F0130B8003808E10708308F
:1009F0006102031CEB2CE1010830610203180E2D8B
:100A00006108D23E86000130870081010130B800C4
:100A10003808E10708306102031C002DE1010830AD
:100A200061020318212D6108303E860001308700E5
:100A300081010130B8003808E10708306102031C69
:100A4000132D2130B80038082300D200D230200006
:100A5000B8003808B4000130B5000030B60070307E
:100A60008D31C125843181302000B8003808230041
:100A7000D200D2302000B8003808B4000130B500F0
:100A80000030B60070308D31C12508002300D2013E
:100A90002000E101E10A113061020318982D0230B3
:100AA000A2000030A3006108B800B9013808A40012
:100AB0003908A50086315026853120002208090713
:100AC000203E8600013087000108BA006108D23E4E
:100AD0008600013087003A0881000230A200003011
:100AE000A3006108B800B9013808A4003908A500BE
:100AF000863150268531200022080907203E8600D5
:100B000001308700403FBA00413FBB003B08BC00BA
:100B10006108013ED23E8600013087003C0881001A
:100B20000230B8003808E10711306102031C4F2D74
:100B3000D230B8003808B4001130B5000030B6002B
:100B400070308D31C12508007E1CA82D8731402FC3
:100B50008B310A2385310318B72DD42D8A311D22FC
:100B600008008A31252208008A3135220800210038
:100B70003B082000AC002C08AB001230A03E8600E1
:100B80008701413F8A00403F0A008531013A03193D
:100B9000B42D033A0319AE2D013A0319B12D073ACA
:100BA0000319B42DB42D08002100A0112308200042
:100BB000AD00210022082000AC002100A20A031988
:100BC000A30A20002C0886002D088700010889311F
:100BD000E921853101302100A4020030A53B240821
:100BE0002504031DF52D0630F62D03302000AE0040
:100BF0000030AF002E0808002000E101083061023B
:100C00000318080021004303031D142E200061086F
:100C1000303E86000130870001088F31082785317A
:100C20002000A600A701412E023021004306031D2B
:100C30002A2E20006108303E86000130870001081E
:100C40008F31082785312000A600A7012608A700BC
:100C5000A601412E20006108303E86000130870049
:100C600001088F31082785312000A6006108303E39
:100C700086000130870001088F3108278531200068
:100C8000A7006135203E86000130870026088104D8
:100C90004131270881040130A6002608E107FE2D16
:100CA0002000A801A31F5B2EA209A309A20A031911
:100CB000A30AA801A80AA51F662EA409A509A40ACB
:100CC0000319A50A0130A6002608A806A901AA0151
:100CD000220823040319952EA701A70AA31B7A2E25
:100CE0000130A235A30D890B712E0130A600260814
:100CF000A7076E2E0130A935AA0D890B7B2E23087C
:100D00002502031D852E22082402031C8C2E220896
:100D1000A4022308A53B29140130A336A20C890B99
:100D20008D2E0130A702031D7A2E280803199D2E4F
:100D3000A909AA09A90A0319AA0A2A08A3002908C5
:100D4000A200080000347E3442347E34023402347F
:100D50000234003400347E34423442347E3442342F
:100D60007E34003400347E340234023402340234DF
:100D70000234003400347E3440347E344234423411
:100D80007E34003400347E34403440347E340234C7
:100D90007E34003400344434443444347E340434E7
:100DA0000434003400347E34023402347E3402349D
:100DB0007E34003400347E34023402347E344034D5
:100DC0007E3400340034783418341834183418342D
:100DD0007E34003400347E3442344234423442346F
:100DE0007E3400342000A500A601A60A2100A01828
:100DF0003D2F20002508A40024082100A100201078
:100E0000A014A0110E302000A40024082100AA0084
:100E1000F430A8000130A9002015DD30AC00093005
:100E2000AD00B801DD30AE000930AF00B901DD30F2
:100E3000B0000930B100BA01DD30B2000930B300B2
:100E4000BB01E330B4000930B500BC018A317C221B
:100E5000863189316821863153302000A200093063
:100E6000A3008931EF21863172302000A2000D30BD
:100E7000A3008931F5212000A601200026080800E2
:100E80008A31BE22873103184F2F6B2F8931882179
:100E9000080089318C210800893194210800210043
:100EA0003B08FA007A08F9001230A03E860087015C
:100EB000413F8A00403F0A008731013A03194C2F15
:100EC000033A0319462F013A0319492F073A031928
:100ED0004C2F4C2F08002100A0112308FB002208F2
:100EE000FA00A20A0319A30A7A0886007B08870081
:100EF00001088931B021873101302100A40200307E
:100F0000A53B24082504031D872F0630882F0330B6
:100F1000FC000030FD007C0808007E1C912F8F3102
:100F20007B2F89317A2187312000AC0021002208F3
:100F300086002308870020002C0881000130210052
:100F4000A2070030A33D0130A4020030A53B2408D5
:100F500025040319AF2F8931A4210530080020157D
:100F6000B72F8A314D2208008A314522080021001E
:100F700038082000AC002C08AB000C30A03E8600E6
:100F80008701413F8A00403F0A008731013A031937
:100F9000B42F033A0319B12F013A0319B12F073ABD
:100FA0000319B42FB42F0800683460345834503417
:100FB00048344034383430342834203400347834E1
:100FC00048347834603450344834003400344A347F
:100FD00048347A347A344A344A340034003444345D
:100FE00044345434543454347C3400340034423463
:100FF000623452344A3446344234003403300800F8
:101294000800080008000134013008002000911102
:1012A4000800893150210800240096140800240005
:1012B40016150800240096150800240011080800DB
:1012C40020009015080020009011080020009011C3
:1012D40008002100901108002400161408002400BE
:1012E400961408002400161508002400961508001A
:1012F400240011080800200090150800240096120C
:101304001616080024009616161608008931562170
:1013140001300800893156210230080089315621F4
:1013240001300800893159210030080089318021B9
:1013340005300800893184210A300800893184216C
:101344000930080024009612161608002400961688
:101354001616080000308D3129250800F0007008A9
:1013640024009100080021002010AB010E30080079
:10137400013400340034003401342700191E0800FD
:101384008A31E32208002100A01189315C21043054
:10139400080020002308EB002208EA0008008E3130
:1013A4009F2689318A315E2208007E1CDB29873121
:1013B400FE2F033008007E1CE12989314E290130BB
:1013C40008007E1CE729803102280530080020002F
:1013D400A200220824009100080020002308DE0057
:1013E4002208DD00080020002308DC002208DB00BE
:1013F4000800640080010131890BFC290034FE00DF
:1014040012001E00FE0B022A003489314B212100F8
:101414002010AB010E3008002100A01521358931C0
:10142400B021033008002100A0150314210D8931D7
:10143400B021053008007E1C212A89318829893190
:101444007121013008007E1C292A89318C298931B7
:101454007121023008007E1C312A8931902989319A
:101464007121013008007E1C392A8931942989317F
:101474007421003008007E1C412A89319829893161
:10148400A421053008007E1C492A89319C29893110
:10149400A8210A3008007E1C512A8931A0298931EB
:1014A400A821093008007E1C592A8931B529210058
:1014B4002010AB010E30080078302100990098010B
:1014C4002200960121001A1B0800642A7E1C6C2A43
:1014D4008931C5292100A011893177210430080000
:1014E4002100100C2000A200A20C220C0139A30040
:1014F400230C08002400951A080094012830950054
:1015040096014F30920008007E1C8A2A8A31072AED
:1015140089314C2121002010AB010E3008007E1CC3
:10152400952A8A310E2A2100A01521358931E92115
:1015340003300800200090190800200090190800CA
:10154400A0300032890BA32A9F2A2100201C080006
:1015540000308A319C228A318D3172258A31A72A42
:101564007608F1007508F0007708F8007808F200B2
:1015740000308D310525080024001608BF39403895
:101584009600160E890C890C0139F000700C0800C5
:101594007E1CCE2A8A31152A2100A0150314210DA0
:1015A4008931E921053008002100C201C20A200066
:1015B400E901620A03190800FF30F0007008E20034
:1015C400080020006A086B040319ED2A6B088A00DE
:1015D4006A080A008A312700191208002100201D18
:1015E40008007108A3007008A2007308A50072081F
:1015F400A4002011080020002808A3002708A20046
:101604002908AA002A08A40000308D314D250800BD
:1016140024001608BF3940389600160E890C890C30
:1016240001392000A200220C080020002808A30091
:101634002708A2002908AA002A08A40002308D3134
:101644004D2508002000E10108306102031808005C
:101654006135203E8600013087000030C03FC13F25
:101664000130A2002208E107262B7908F000FF3997
:10167400031D0030F1000230F2000030F3008A3123
:10168400F0228B310030F500F600F7018A31B222E6
:10169400043008007908F000FF39031D0030F10020
:1016A4000130F2000030F3008A31F0228B31003037
:1016B400F500F600F7018A31B222043008007908F7
:1016C400F000FF39031D0030F1000130F20000305A
:1016D400F3008A31F0228B310030F500F600F70177
:1016E4008A31B222023008007908F000FF39031D64
:1016F4000030F1000230F2000030F3008A31F022B1
:101704008B310030F500F600F7018A31B222023045
:1017140008002100201D0800200023082100A30048
:10172400200022082100A200200025082100A50095
:10173400200024082100A400201108007908023E9A
:10174400860087010108F0000030F1007908860066
:101754008701403FF200413FF3008A31F0228B3190
:101764000030F500F600F7018A31B2220230080099
:101774002000A301A30A21002018D22BA010FF30BF
:101784002000A20022082100A100893168218B31A8
:1017940089316B2121002B082000A2002208A3001C
:1017A4002000230808007E1CD92B8B31372B200006
:1017B4002B08A200FF39031D0030A3000230A4004F
:1017C4000030A5008B318B238B3100302000A70023
:1017D400A800A9018A31FD22043008007E1CF42BE4
:1017E4008B314C2B20002B08A200FF39031D003045
:1017F400A3000130A4000030A5008B318B238B3172
:1018040000302000A700A800A9018A31FD2204307D
:1018140008007E1C0F2C8B31612B20002B08A200AA
:10182400FF39031D0030A3000130A4000030A500DF
:101834008B318B238C3100302000A700A800A90134
:101844008A31FD22023008007E1C2A2C8B31762B33
:1018540020002B08A200FF39031D0030A300023032
:10186400A4000030A5008B318B238C310030200084
:10187400A700A800A9018A31FD2202300800200037
:10188400BF003F08BD00BE01BD09BE09BD0A031962
:10189400BE0A3C083D07B5003E0803183E0AB600E0
:1018A4008F313F278C3120002F08B8002E08B70055
:1018B4008F31BA27200035083F0708007E1C642CAE
:1018C4008B31A02B20002B08023E860087010108E3
:1018D400A2000030A3002B0886008701403FA4002B
:1018E400413FA5008B318B238C3100302000A700B1
:1018F400A800A9018A31FD220230080055340A34B7
:10190400CA340A3491340A34A43405348D34073487
:1019140068340A3441340E341D340A3425340A340C
:101924002D340A3435340A343D340A3445340A3407
:101934004D340A3486340A34EA340D3400347E34A7
:1019440042344234423442347E34003400347E34EF
:1019540060346034603460347E34003400347E3467
:10196400403440347E3402347E34003400347C34D9
:1019740040347034703440347C340034893165210F
:101984008C312100A01DD12C8A31BE228C31031C44
:10199400D12C0F302000A00020082100AA00210033
:1019A4002A35A03E860002308700413F8A00403F2E
:1019B4000A008C312000A00020082100AA000800A1
:1019C4002100A0110230FA007A08AB00EF2C893113
:1019D4009021080089319421080021003A08FA0076
:1019E4007A08F9001030A03E86008701413F8A0042
:1019F400403F0A008C31023A0319E92C013A0319D9
:101A0400E92CEC2C0800F4007008710403191B2D58
:101A14007435AC3E860087017008C03F7108C13F31
:101A24007208F3007408B83E8600870173088100C9
:101A340008007435AC3E86008701DD30C03F0930B4
:101A4400C13F7408B83E8600870181010800200068
:101A5400B200B301B30A210020184A2D201420003B
:101A6400B301320803193A2D2100AA01AA0A402D14
:101A740002302000B10031082100AA0089316E2112
:101A84008D318A3172228D3103184A2D8A31A72271
:101A94002000330808002000A600220823040319AC
:101AA400642D2635AC3E860087012208C03F2308FA
:101AB400C13F2408A5002608B83E860087012508F2
:101AC400810008002635AC3E86008701DD30C03F2A
:101AD4000930C13F2608B83E86008701810108000D
:101AE4007E1C762D8C31C02C893168218D312100EA
:101AF400A01D872D8B310A238D31031C872D0F30B8
:101B04002000B00030082100AA0021002A35A03EA0
:101B1400860002308700413F8A00403F0A008D3131
:101B24002000B00030082100AA0008002100201580
:101B3400A52D8931902108008931622103300800E4
:101B440089319421080021003808FA007A08F90044
:101B54000C30A03E86008701413F8A00403F0A00C6
:101B64008D31013A0319A22D033A03199B2D013A31
:101B740003199B2D073A03199E2DA22D080020005E
:101B8400B700200037088631F2268D31003A031958
:101B9400C32D20003408A2000130A3003608A5009C
:101BA4003508A4008B318B238D31D7302000A7005A
:101BB4000930A800A9018B3117238D318931AC215B
:101BC4008D318B31BA238D31013A031D0800E32D89
:101BD4007E1CEE2D8C31E22C2100A011023020005D
:101BE400AC002C082100AB00FD2D8A312D22080009
:101BF4008A313522080021003A082000AC002C0864
:101C0400AB001030A03E86008701413F8A00403F70
:101C14000A008E31023A0319F72D013A0319F72D00
:101C2400FA2D080020002A082B0403193C2EAF01CA
:101C3400AF0AAB1B272E0130AA35AB0D890B1E2E24
:101C44000130AE002E08AF071B2E2B082D02031DFA
:101C54002D2E2A082C02031C332E2A08AC022B0832
:101C6400AD3B0130AB36AA0C890B342E0130AF02E8
:101C7400031D272E2D08AB002C08AA0008007E1C8B
:101C8400452E8D31982D21002015522E8A312D227A
:101C9400080089317D21033008008A31352208008B
:101CA400210038082000AC002C08AB000C30A03E0A
:101CB40086008701413F8A00403F0A008E31013A85
:101CC40003194F2E033A0319482E013A0319482EDB
:101CD400073A03194B2E4F2E080000302000AD00A8
:101CE4000030AC000030AB000030AA00221C822E71
:101CF4002608AA072708AB3D2808AC3D2908AD3DB6
:101D04000130A635A70DA80DA90D890B832E01302E
:101D1400A536A40CA30CA20C890B8A2E2508240436
:101D240023042204031D782E2D08A5002C08A400EA
:101D34002B08A3002A08A200080022008C018D01B0
:101D44008E01373021008C00F0308D00FF308E0082
:101D5400CF3023008E00A0308D0017308C0024007B
:101D64008D018C0110308E002100951325008C010B
:101D74008D018E0127001912181617164A302000FB
:101D8400A2000930A3008931CB218B150E303C0011
:101D9400A0000C30A10010303D009E0011309C00CA
:101DA40008002000A801A901220823040319032F15
:101DB400A701A70AA31BE82E0130A235A30D890BA6
:101DC400DF2E0130A6002608A707DC2E0130A83537
:101DD400A90D890BE92E23082502031DF32E2208E1
:101DE4002402031CFA2E2208A4022308A53B28146B
:101DF4000130A336A20C890BFB2E0130A702031D70
:101E0400E82E2908A3002808A20008002000A50045
:101E140025080F39A2000430A235890B0E2F25089E
:101E2400A3000430A336890B142F23080F3922048E
:101E3400A4002408A50025083339A2000230A235E5
:101E4400890B212F2508A3000230A336890B272FE5
:101E5400230833392204A4002408A5002508553991
:101E6400A2000130A235890B342F253655392204BE
:101E7400A3002308A5002508080020006808A50081
:101E84006708A4006608A3006508A2004130A90001
:101E9400C630A8004E30A7006D30A6008E316F26E4
:101EA4008F3120002508E8002408E7002308E60015
:101EB4002208E5003930E5073030E63D0030E73DE3
:101EC4000030E83D6508B0006608B1006708B2005C
:101ED4006808B3001030B400B337B20CB10CB00CC6
:101EE400B40B6E2FFF303005AE007F303105AF00EC
:101EF400080089315F218F31FA0021002208860011
:101F0400230887007A0881000130A2070030A33D2E
:101F14000130A4020030A53B240825040319962FA0
:101F2400893180210530080020159E2F8931A02198
:101F3400080089319C21080021003808FA007A0839
:101F4400F9000C30A03E86008701413F8A00403FE3
:101F54000A008F31013A03199B2F033A0319982F72
:101F6400013A0319982F073A03199B2F9B2F080056
:101F74002000BB01B81FC52FB709B809B70A031958
:101F8400B80ABB01BB0AB61FCC2FB509B609B50AFE
:101F94000319B60A350836040319F32FBA01BA0A2D
:101FA400B61BDE2F0130B535B60D890BD52F0130A8
:101FB400B9003908BA07D22F36083802031DE42FB6
:101FC40035083702031CEA2F3508B7023608B83B38
:101FD4000130B636B50C890BEB2F0130BA02031D64
:101FE400DE2F3B080319FB2FB709B809B70A0319F9
:0C1FF400B80A3808B6003708B50008002D
:020000040001F9
:06000E00FC3FFF3F9F3F95
:00000001FF
