:1000000080313028033008007E14803120007F08C2
:10001000A1008B190B1C10288B31F42380312B2865
:100020000B1F2B282100911D1F282000911D1F2828
:1000300021005F088A005E080A0080312B28210019
:10004000901D2B282000901D2B2821005D088A0080
:100050005C080A00803120002108FF007E100900A2
:1000600080313228EF3084008B308500E23086000A
:100070000030870005308C312424803168308400C2
:1000800086308500203086000130870040308C317A
:1000900024248031DC3084008E308500A03086003E
:1000A0000130870020308C3124248031E801E901BF
:1000B000EA01EB01EC01A030840000308500423001
:1000C0008C311E248031603084000130850008307E
:1000D0008C311E248031C030840001308500113005
:1000E0008C311E247E1020008331212B2000AA0099
:1000F0002303031DA6280130A4000030A5002A0A0E
:100100008328A435A50D890B81282235BE3E8600A3
:100110008701240881044131250881040130A400AD
:100120000030A5002A08083E890A9828A435A50DA4
:10013000890B9628A409A5092235BE3E86008701B1
:100140002408810541312508810508000230230675
:10015000031DD5280130A4000030A5002A08083E60
:10016000890AB428A435A50D890BB2282235BE3ED4
:10017000860087012408810441312508810401306B
:10018000A4000030A5002A0AC728A435A50D890BB4
:10019000C528A409A5092235BE3E8600870124088A
:1001A0008105413125088105080003302306031D20
:1001B000FF280130A4000030A5002A0AE128A43558
:1001C000A50D890BDF280130A6000030A7002A0802
:1001D000083E890AED28A635A70D890BEB282408CF
:1001E0002604A80025082704A9002235BE3E860063
:1001F0008701280881044131290881040800230867
:10020000031D08000130A4000030A5002A08083EA4
:10021000890A0C29A435A50D890B0A29A409A50969
:100220000130A6000030A7002A0A1829A635A70D1C
:10023000890B1629A609A70924082605A800250860
:100240002705A9002235BE3E8600870128088105C2
:1002500041312908810508002000CA00CB013D0872
:100260004B02031808004B080739BE003E08C900BE
:10027000CC0108304C02031898290830A200003045
:10028000A3004B08BE00BF013E08A4003F08A50024
:1002900084319D24813120002208013E4A07C0009C
:1002A0004008860087014C080107C100410886000C
:1002B000013087000108C2004903FF3A083E890A5D
:1002C0006229C236890B61290830A2000030A300E0
:1002D0004B08C300C4014308A4004408A5008431AE
:1002E0009D248131200022084A07C5004508860068
:1002F00087014C080107C6004608860001308700C8
:100300000108C700490A8529C735890B8429470890
:100310004204C8004C08CE3E860087014808810090
:100320000130BE003E08CC0708304C02031C3D29BA
:100330008D31622581318E317E2681318331E923F1
:10034000813103302000BF00D830BE004130890B1E
:10035000A729BE0BA729BF0BA72900320130200017
:10036000BE003E08CB072F292000EA0108306A02B0
:100370000318CE296A08CE3E860087010135C000E9
:100380006A08CE3E86008701400881000130C00027
:100390004008EA0708306A02031CBA29033021002A
:1003A0006106031D322A07302000C0004008BC004F
:1003B00004308E319D2681312000C1004108E900C2
:1003C0006908C0004008BC0001308E319D26813193
:1003D0002000C1004108E800EA0168086A02031829
:1003E000FB296A08CE3E8600870101140130C00057
:1003F0004008EA07ED290730C0004008EA00680815
:10040000C000C101C009C109C00A0319C10A6908B5
:100410004007C20041080318410AC300C209C309CA
:10042000C20A0319C30A4208083EC4000030433D13
:10043000C5004508803A803C031D202A44086A0212
:10044000031C2B2A20006A08CE3E86008701011477
:100450000130EA02FF292100E1010130DA07003012
:10046000DB3D080001302000C00040082100E1070A
:1004700008002000E2000A306206031D5B2A60309B
:10048000CD004D08DD005830CD004D08DE00503065
:10049000CD004D08DF004830CD004D08E000603051
:1004A000CD004D08E1002030CD004D08BD005D308D
:1004B00081312C2182310B30200062060319642A1D
:1004C0000A306206031D8C2A6030CD004D08CE0034
:1004D0004030CD004D08CF003830CD004D08D00061
:1004E0003030CD004D08D1002830CD004D08D2006D
:1004F0002030CD004D08D3005030CD004D08D40041
:100500006030CD004D08D5003830CD004D08BD001D
:100510004E3081312C2182310C3020006206031DC7
:1005200008006030CD004D08D6003830CD004D08B1
:10053000D7003030CD004D08D8002830CD004D0810
:10054000D9002030CD004D08DA005030CD004D08E4
:10055000DB006030CD004D08DC003030CD004D08B0
:10056000BD00563081312C2108002000E5006508CF
:100570000319F02AEA0108306A020318CF2A6A3503
:10058000BE3E860087010030C03FFF30C13F0130D2
:10059000E3006308EA0708306A02031CBF2A8331BC
:1005A000E923823109302000E4001E30E300E4300A
:1005B000890BD82AE30BD82AE40BD82A00002100A3
:1005C0005B085902031DE62A5A0858020318EE2A4E
:1005D0005B08D9005A08D8000A30F12A0C30F12AF9
:1005E0000B308231392282318D3162258231833163
:1005F000E92382312000EA0108306A0203180D2B3A
:100600006A08CE3E8600870181010130E30063085D
:10061000EA0708306A02031C002B8331E923823188
:100620002100E00160080319122B03302000E300D1
:100630006308EC00EB012100D601D701DA01DB01F0
:1006400008008C31002483318B170B1783318A23E8
:10065000833114302000A2000D30A3008C317824A7
:10066000833100308231B522833120006C08E600EE
:100670006608A2000330E7006708A300013080315C
:10068000762083318E317E2683318331E923833195
:100690008D3162258331083020006C020318562BFF
:1006A0006C08CE3E86008701011F5A2B0130823133
:1006B000B5228331503020006B02031C722B2100C5
:1006C00066080319692B01302000E6006608EC0774
:1006D0006F2B01302000EC022100E601E60A200029
:1006E000EB01762B0130E6006608EB0700302100B5
:1006F0005702643003195602031C852B8131B42143
:1007000083312100D601D701352B0130D6070030C7
:10071000D73D352B2000EA0108306A0203189F2BD1
:100720006A35BE3E860087010030C03FC13F0130C0
:10073000B8003808EA0708306A02031C902BEA0167
:1007400008306A020318B22B6A08C03E86000130E6
:10075000870081010130B8003808EA0708306A02D2
:10076000031CA42BEA0108306A020318C42B6A0890
:10077000CE3E8600870181010130B8003808EA07C3
:1007800008306A02031CB72B2130B8003808230058
:10079000C000C0302000B8003808B4000130B500F7
:1007A0000030B60070308F31D72783318130200080
:1007B000B80038082300C000C0302000B800380856
:1007C000B4000130B5000030B60070308F31D7274B
:1007D00008002300C0012000EA01EA0A11306A0281
:1007E0000318392C0230A2000030A3006A08B800B8
:1007F000B9013808A4003908A50084319D2483314B
:10080000200022080907BE3E860087010108BA00C1
:100810006A08C03E8600013087003A088100023035
:10082000A2000030A3006A08B800B9013808A4008B
:100830003908A50084319D2483312000220809074E
:10084000BE3E86008701403FBA00413FBB003B08E7
:10085000BC006A08013EC03E8600013087003C08AB
:1008600081000230B8003808EA0711306A02031C20
:10087000F22BC030B8003808B4001130B500003099
:10088000B60070308F31D72708007E1C492C853187
:100890008E2D8D31482584310318582C752C8C31C0
:1008A000402408008C31482408008C31582408006A
:1008B00021003B082000AC002C08AB001230A03E09
:1008C00086008701413F8A00403F0A008431013A97
:1008D0000319552C033A03194F2C013A0319522CD2
:1008E000073A0319552C552C08002100A0112308A4
:1008F0002000AD00210022082000AC002100A20A47
:100900000319A30A20002C0886002D08870001087F
:100910008C311824843101302100A4020030A53B21
:1009200024082504031D962C0630972C0330200044
:10093000AE000030AF002E0808002000A801A31F61
:10094000A82CA209A309A20A0319A30AA801A80AAC
:10095000A51FB32CA409A509A40A0319A50A0130EF
:10096000A6002608A806A901AA0122082304031943
:10097000E22CA701A70AA31BC72C0130A235A30DA7
:10098000890BBE2C0130A6002608A707BB2C01301E
:10099000A935AA0D890BC82C23082502031DD22CCA
:1009A00022082402031CD92C2208A4022308A53BF8
:1009B00029140130A336A20C890BDA2C0130A702CE
:1009C000031DC72C28080319EA2CA909AA09A90A9A
:1009D0000319AA0A2A08A3002908A2000800210076
:1009E00065082000A500210064082000A400210063
:1009F00063082000A300210062082000A20041300B
:100A0000A900C630A8004E30A7006D30A60087317F
:100A100052278431200025082100E5002000240809
:100A20002100E400200023082100E3002000220828
:100A30002100E2003930E2073030E33D0030E43D90
:100A40000030E53D62082000B0002100630820006E
:100A5000B100210064082000B200210065082000D8
:100A6000B3001030B400B337B20CB10CB00CB40BFF
:100A7000332DFF303005AE007F303105AF00080068
:100A80002000A500A601A60A2100A0188B2D200099
:100A90002508A40024082100A1002010A014A01102
:100AA0000E302000A40024082100AA00F430A80081
:100AB0000130A90020150C30AC000C30AD00B8019D
:100AC0000C30AE000C30AF00B9010C30B0000C306F
:100AD000B100BA010C30B2000C30B300BB011230CF
:100AE000B4000C30B500BC018C31BA2485318B3197
:100AF0009D23853188302000A2000B30A3008C316B
:100B00008A248531DA302000A2000730A3008C311E
:100B100093242000A6012000260808008C31FC2424
:100B2000853103189D2DB92D8B31BD2308008B31E4
:100B3000C12308008B31C923080021003B08FA00BB
:100B40007A08F9001230A03E86008701413F8A00F2
:100B5000403F0A008531013A03199A2D033A0319DF
:100B6000942D013A0319972D073A03199A2D9A2DBE
:100B700008002100A0112308FB002208FA00A20AA5
:100B80000319A30A7A0886007B08870001088B31C5
:100B9000E523853101302100A4020030A53B240863
:100BA0002504031DD52D0630D62D0330FC00003062
:100BB000FD007C0808007E1CDF2D8631A82E8B31BD
:100BC000AF2385312000AC002100220886002308D5
:100BD000870020002C08810001302100A20700308E
:100BE000A33D0130A4020030A53B240825040319CD
:100BF000FD2D8B31D923053008002015052E8C31B1
:100C0000702408008C316824080021003808200076
:100C1000AC002C08AB000C30A03E86008701413FA1
:100C20008A00403F0A008631013A0319022E033A36
:100C30000319FF2D013A0319FF2D073A0319022E5C
:100C4000022E08002000BB01B81F2D2EB709B809DD
:100C5000B70A0319B80ABB01BB0AB61F342EB5097F
:100C6000B609B50A0319B60A3508360403195B2E0E
:100C7000BA01BA0AB61B462E0130B535B60D890B3E
:100C80003D2E0130B9003908BA073A2E360838022D
:100C9000031D4C2E35083702031C522E3508B702AF
:100CA0003608B83B0130B636B50C890B532E0130EF
:100CB000BA02031D462E3B080319632EB709B80973
:100CC000B70A0319B80A3808B6003708B500080093
:100CD0000034783448347834603450344834003444
:100CE00000347E3442344234423442347E34003460
:100CF00000347E3460346034603460347E340034D8
:100D000000347E34403440347E3402347E34003447
:100D100000344A3448347A347A344A344A34003419
:100D20000034443444345434543454347C34003423
:100D300000347C3440347034703440347C340034BB
:100D400000344234623452344A344634423400343B
:100D50008B3194238631FA00210022088600230873
:100D600087007A0881000130A2070030A33D0130DE
:100D7000A4020030A53B240825040319C32E8B319F
:100D8000B523053008002015CB2E8B31D523080064
:100D90008B31D123080021003808FA007A08F900C5
:100DA0000C30A03E86008701413F8A00403F0A0088
:100DB0008631013A0319C82E033A0319C52E013AA8
:100DC0000319C52E073A0319C82EC82E08002000A3
:100DD000A50025080F39A2000430A235890BED2E9D
:100DE0002508A3000430A336890BF32E23080F39FE
:100DF0002204A4002408A50025083339A2000230EB
:100E0000A235890B002F2508A3000230A336890BD9
:100E1000062F230833392204A4002408A50025083E
:100E20005539A2000130A235890B132F25365539CB
:100E30002204A3002308A5002508080022008C0135
:100E40008D018E01373021008C00F0308D00FF3095
:100E50008E00CF3023008E00A0308D0017308C0024
:100E600024008D018C0110308E0021009513250087
:100E70008C018D018E0127001912181617167E306D
:100E80002000A2000B30A3008C3178248B150E308B
:100E90003C00A0000C30A10010303D009E0011303D
:100EA0009C00080000302000AD000030AC00003095
:100EB000AB000030AA00221C652F2608AA072708CD
:100EC000AB3D2808AC3D2908AD3D0130A635A70D46
:100ED000A80DA90D890B662F0130A536A40CA30C13
:100EE000A20C890B6D2F2508240423042204031D62
:100EF0005B2F2D08A5002C08A4002B08A3002A08AE
:100F0000A20008007E1C862F8F31AE2F21002015F5
:100F1000932F8C31502408008B31B223033008000A
:100F20008C3158240800210038082000AC002C081F
:100F3000AB000C30A03E86008701413F8A00403F55
:100F40000A008731013A0319902F033A0319892FB8
:100F5000013A0319892F073A03198C2F902F0800A3
:100F60007E1CB42F8F311E2F2100A01102302000D3
:100F7000AC002C082100AB00C32F8C31502408009A
:100F80008C315824080021003A082000AC002C08BD
:100F9000AB001030A03E86008701413F8A00403FF1
:100FA0000A008731023A0319BD2F013A0319BD2FF8
:100FB000C02F08007E1CDE2F8E31FC2E8B319D232E
:100FC00087312100A01DEF2F8D3148258731031C6B
:100FD000EF2F0F302000B00030082100AA002100C0
:100FE0002A35A03E860001308700413F8A00403FFD
:100FF0000A0087312000B00030082100AA00080054
:1016FC000800080008000130080005300800200030
:10170C00911108008B3185230800240096140800E1
:10171C002400161508002400961508002400110852
:10172C0008002000901508002000901108002000EF
:10173C0090110800210090110800240016140800D4
:10174C002400961408002400161508002400961591
:10175C00080024001108080020009015080024003F
:10176C0096121616080024009616161608008B31D1
:10177C008B23013008008B318B23023008008B3116
:10178C008B23013008008B318E23003008008B3105
:10179C00B523053008008B31B9230A3008008B3192
:1017AC00B9230930080024009612161608002400EC
:1017BC0096161616080000308F3165270800F000C9
:1017CC00700824009100080021002010AB010E309D
:1017DC000800013400340034003401342700191E91
:1017EC0008008D31212508002100A0118B31912397
:1017FC000430080087311E278C318C319C24080062
:10180C007E1C0A2C80310228033008007E1C102C10
:10181C008B31812B013008007E1C162C8B31832BD5
:10182C00053008002000A2002208240091000800C6
:10183C00640080010131890B1F2C0034FE00120062
:10184C001E00FE0B252C00348B317F232100201031
:10185C00AB010E3008002100A01521358B31E5239A
:10186C00033008002100A0150314210D8B31E52352
:10187C00053008007E1C442C8B31BD2B8B31A623EC
:10188C00013008007E1C4C2C8B31C12B8B31A623D4
:10189C00023008007E1C542C8B31C52B8B31A623B7
:1018AC00013008007E1C5C2C8B31C92B8B31A92399
:1018BC00003008007E1C642C8B31CD2B8B31D9234E
:1018CC00053008007E1C6C2C8B31D12B8B31DD2329
:1018DC000A3008007E1C742C8B31D52B8B31DD2308
:1018EC0009300800200023082100E800200022080D
:1018FC002100E70008007E1C852C8B31EA2B21008F
:10190C002010AB010E300800200023082100DF005E
:10191C00200022082100DE000800200023082100FE
:10192C00DD00200022082100DC00080078302100B6
:10193C00990098012200960121001A1B0800A22C84
:10194C007E1CAA2C8B31FA2B2100A0118B31AC23DD
:10195C00043008002100100C2000A200A20C220C64
:10196C000139A300230C08002400951A08009401E7
:10197C002830950096014F30920008007E1CC82C30
:10198C008C312A2C8B31802321002010AB010E309E
:10199C0008007E1CD32C8C31312C2100A015213554
:1019AC008C31182403300800200090190800200006
:1019BC0090190800A0300032890BE12CDD2C21009D
:1019CC00201C080000308C31DA248C318731DA2766
:1019DC008C31E52C7608F1007508F0007708F800DA
:1019EC007808F20000308F314127080024001608D7
:1019FC00BF3940389600160E890C890C0139F0005D
:101A0C00700C08007E1C0C2D8C31382C2100A0157C
:101A1C000314210D8C311824053008002100E0013D
:101A2C00E00AE60120006B0A03190800FF30F00001
:101A3C007008EB00080021006708680403192B2DBF
:101A4C0068088A0067080A008D31270019120800FF
:101A5C002100201D08007108A3007008A200730863
:101A6C00A5007208A4002011080020002808A3007B
:101A7C002708A2002908AA002A08A40000308F31E8
:101A8C008927080024001608BF3940389600160E26
:101A9C00890C890C01392000A200220C08002000BE
:101AAC002808A3002708A2002908AA002A08A400D5
:101ABC0002308F31892708002000EA0108306A02C1
:101ACC00031808006A35BE3E860087010030C03F0F
:101ADC00C13F0130A2002208EA07642D7908F0000A
:101AEC00FF39031D0030F1000230F2000030F3002A
:101AFC008D312E258D310030F500F600F7018C313B
:101B0C00F024043008007908F000FF39031D003080
:101B1C00F1000130F2000030F3008D312E258D31B3
:101B2C000030F500F600F7018C31F0240430080089
:101B3C007908F000FF39031D0030F1000130F2008C
:101B4C000030F3008D312E258D310030F500F6007C
:101B5C00F7018C31F024023008007908F000FF39CD
:101B6C00031D0030F1000230F2000030F3008D3123
:101B7C002E258D310030F500F600F7018C31F02464
:101B8C00023008002100201D08002000230821003D
:101B9C00A300200022082100A2002000250821001B
:101BAC00A500200024082100A400201108007908B9
:101BBC00023E860087010108F0000030F100790830
:101BCC0086008701403FF200413FF3008D312E2506
:101BDC008D310030F500F600F7018C31F024023025
:101BEC0008002000A301A30A210020180F2EA0102A
:101BFC00FF302000A20022082100A1008B319D2380
:101C0C008D318B31A02321002B082000A20022084B
:101C1C00A3002000230808007E1C162E8D31742D85
:101C2C0020002B08A200FF39031D0030A300023056
:101C3C00A4000030A5008D31C8258E310030200065
:101C4C00A700A800A9018D313B25043008007E1C9B
:101C5C00312E8D31892D20002B08A200FF39031D58
:101C6C000030A3000130A4000030A5008D31C82540
:101C7C008E3100302000A700A800A9018D313B2532
:101C8C00043008007E1C4C2E8D319E2D20002B081C
:101C9C00A200FF39031D0030A3000130A400003066
:101CAC00A5008D31C8258E3100302000A700A8007A
:101CBC00A9018D313B25023008007E1C672E8D3129
:101CCC00B32D20002B08A200FF39031D0030A30008
:101CDC000230A4000030A5008D31C8258E310030B3
:101CEC002000A700A800A9018D313B250230080077
:101CFC002000EA0108306A02031808006A08CE3E88
:101D0C008600870101088631E7268E312000A60067
:101D1C00A7016A35BE3E8600870126088104413141
:101D2C00270881040130A6002608EA07802E20002F
:101D3C00BF003F08BD00BE01BD09BE09BD0A0319A5
:101D4C00BE0A3C083D07B5003E0803183E0AB60023
:101D5C008431EF248E3120002F08B8002E08B700F4
:101D6C0086312226200035083F0708007E1CC02E35
:101D7C008D31DD2D20002B08023E860087010108E5
:101D8C00A2000030A3002B0886008701403FA4006E
:101D9C00413FA5008D31C8258E3100302000A700B1
:101DAC00A800A9018D313B250230080081340C3488
:101DBC0008340D34CF340C3445340434DB3405345E
:101DCC00A6340C348234073440340C3448340C348C
:101DDC0050340C3458340C3460340C3468340C34B7
:101DEC0070340C34C4340C34B03407348B319A2333
:101DFC008E312100A01D0D2F8C31FC248E31031C43
:101E0C000D2F0F302000A00020082100AA00210077
:101E1C002A35A03E860001308700413F8A00403FB2
:101E2C000A008F312000A00020082100AA00080021
:101E3C002100A0110230FA007A08AB002B2F8B3155
:101E4C00C52308008B31C923080021003A08FA0089
:101E5C007A08F9001030A03E86008701413F8A00C5
:101E6C00403F0A008F31023A0319252F013A03191A
:101E7C00252F282F0800F400700871040319572F20
:101E8C007435AC3E860087017008C03F7108C13FB5
:101E9C007208F3007408B83E86008701730881004D
:101EAC0008007435AC3E860087010C30C03F0C3006
:101EBC00C13F7408B83E86008701810108002000EC
:101ECC00B200B301B30A21002018862F2014200081
:101EDC00B30132080319762F2100AA01AA0A7C2F1C
:101EEC0002302000B10031082100AA008B31A3235D
:101EFC008F318C31B0248F310318862F8C31E5242F
:101F0C002000330808002000A6002208230403192F
:101F1C00A02F2635AC3E860087012208C03F23083F
:101F2C00C13F2408A5002608B83E86008701250875
:101F3C00810008002635AC3E860087010C30C03F7E
:101F4C000C30C13F2608B83E86008701810108008D
:101F5C0021002015BB2F8B31C52308008B31972313
:101F6C00033008008B31C923080021003808FA001F
:101F7C007A08F9000C30A03E86008701413F8A00A8
:101F8C00403F0A008F31013A0319B82F033A031965
:101F9C00B12F013A0319B12F073A0319B42FB82FF7
:101FAC0008002000B70020003708853140258F310C
:101FBC00003A0319D92F20003408A2000130A300E5
:101FCC003608A5003508A4008D31C8258F310630A0
:101FDC002000A7000C30A800A9018D3155258F31A8
:101FEC008B31E1238F318D31F7258F31013A031D70
:041FFC000800F92FB1
:020000040001F9
:06000E00FC3FFF3F9F3F95
:00000001FF
